:020000040800F2
:10000000800E0020FD010008571D0008211B00087C
:10001000551D0008C9110008C12700080000000094
:100020000000000000000000000000000F020008B7
:100030003D1200080000000013020008150200082D
:10004000170200081702000817020008170200082C
:1000500017020008170200084112000817020008E2
:10006000170200081702000817020008170200080C
:1000700017020008170200081702000817020008FC
:1000800017020008170200081702000817020008EC
:100090001702000817020008170200087D12000866
:1000A00017020008170200081702000817020008CC
:1000B00017020008170200081702000817020008BC
:1000C00017020008170200081702000817020008AC
:1000D0001702000895230008C1230008F123000837
:1000E000170200081702000817020008170200088C
:1000F000170200081702000817020008170200087C
:10010000170200081702000817020008170200086B
:10011000170200081702000817020008170200085B
:10012000170200081702000817020008170200084B
:1001300000F002F800F042F80AA090E8000C8244B7
:100140008344AAF10107DA4501D100F037F8AFF294
:10015000090EBAE80F0013F0010F18BFFB1A43F0A5
:10016000010318477C5300009C530000103A24BF41
:1001700078C878C1FAD8520724BF30C830C144BF0C
:1001800004680C607047000000230024002500264E
:10019000103A28BF78C1FBD8520728BF30C148BFEA
:1001A0000B6070471FB59DE8030000F05FFC00F096
:1001B000A5FB1FBD10B500F00AFC10BD00F0FEFD50
:1001C0001146FFF7EFFF04F0C9F800F057FE03B443
:1001D000FFF7F0FF03BC02F09EFC0000EFF3098084
:1001E000704780F309887047EFF30880704780F309
:1001F0000888704740BA7047C0BA704709488047BE
:1002000009480047FEE7FEE7FEE7FEE7FEE7FEE7F8
:10021000FEE7FEE7FEE7FEE704480549054A064B10
:1002200070470000452300083101000880080020C5
:10023000800E0020800A0020800A002070472DE9EF
:10024000F04117460D4604460646012913DD38469F
:1002500003F07CFC411C0CD0C0B20A2804F8010B4E
:1002600002D06D1E012DF2DC002020703046BDE86A
:10027000F081B44201D10020F9E7384600F045FA98
:100280000028F1D00026EFE72DE9F0410C460746A3
:100290001646104600F06EF82078611C61280AD0DE
:1002A000722802D077283CD102E00125002405E025
:1002B0000225042402E0082448F2020511F8010B8B
:1002C0002B2806D0622809D011F8010C74280AD016
:1002D0000BE045F0030544F00204EFE745F00405A8
:1002E00044F00104EAE744F010043846214602F0E5
:1002F00021FC411C15D00021316171604FF4007167
:10030000F560F1617061200704D5304602220021BA
:1003100000F000FA306D40F0010030653046BDE875
:10032000F0810020FBE72DE9F0410D460646104C18
:10033000206DC10704D0410804D020F00104F7E784
:1003400022460EE0542000F08AF907000ED0206DFE
:1003500047F00101084354212065384600F014F9A4
:100360003A4629463046BDE8F0418DE70020D6E701
:10037000240700202DE9F04704464FF000094FF014
:10038000FF37C568D4E90486A80707D0204600F0E7
:1003900071FA304602F0B8FB002802DA3846BDE8B0
:1003A000F087280502D5404600F088F94C21204608
:1003B00000F0EAF8206D20F0010020654846EEE7E5
:1003C00040EA010310B59B070FD1042A0DD310C8D2
:1003D00008C9121F9C42F8D020BA19BA884201D924
:1003E000012010BD4FF0FF3010BD1AB1D30703D06C
:1003F000521C07E0002010BD10F8013B11F8014B22
:100400001B1B07D110F8013B11F8014B1B1B01D13D
:10041000921EF1D1184610BD10B5431C02E010F831
:10042000011B71B18107FAD14FF0013202C88C1A59
:100430008C4314EAC211F9D0C01A0A0603D0C01EB8
:1004400010BDC01A10BD0A0401D0801E10BD0902E3
:10045000FCD0401E10BD032A40F2308010F0030C87
:1004600000F0158011F8013BBCF1020F624498BF07
:1004700011F801CB00F8013B38BF11F8013BA2F1A4
:10048000040298BF00F801CB38BF00F8013B11F01F
:10049000030300F02580083AC0F0088051F8043BBF
:1004A000083A51F804CBA0E80810F5E7121D5CBF2C
:1004B00051F8043B40F8043BAFF30080D20724BF5F
:1004C00011F8013B11F801CB48BF11F8012B24BFF3
:1004D00000F8013B00F801CB48BF00F8012B704742
:1004E00010B5203AC0F00B80B1E81850203AA0E8CF
:1004F0001850B1E81850A0E81850BFF4F5AF5FEA03
:10050000027C24BFB1E81850A0E8185044BF18C9B5
:1005100018C0BDE810405FEA827C24BF51F8043B5C
:1005200040F8043B08BF7047D20728BF31F8023BB0
:1005300048BF11F8012B28BF20F8023B48BF00F844
:10054000012B70474FF000020429C0F0128010F018
:10055000030C00F01B80CCF1040CBCF1020F18BF9F
:1005600000F8012BA8BF20F8022BA1EB0C0100F032
:100570000DB85FEAC17C24BF00F8012B00F8012B05
:1005800048BF00F8012B70474FF0000200B513463A
:1005900094469646203922BFA0E80C50A0E80C50A3
:1005A000B1F12001BFF4F7AF090728BFA0E80C5054
:1005B00048BF0CC05DF804EB890028BF40F8042B4D
:1005C00008BF704748BF20F8022B11F0804F18BFBA
:1005D00000F8012B704700004FF0013C50F8042B4D
:1005E00051F8043B9A4221D1A2EB0C03934313EA46
:1005F000CC1317D150F8042B51F8043B9A4215D173
:10060000A2EB0C03934313EACC130BD150F8042B49
:1006100051F8043B9A4209D1A2EB0C03934313EA2D
:10062000CC13DBD04FF00000704700BFD01A01BAE6
:10063000B1FA81F101F0180122FA01F0CB40C1F1C9
:100640002001DBB2C0B2C01A2CFA01F3D11A9143D7
:1006500011EAC311E6D1704770477047704770B513
:10066000064600F0E7F9056806F10B0020F00704E4
:10067000B4429CBF002070BD2B466A68BAB11068B6
:10068000A04210D304F1080188423CBF5068586072
:1006900007D35168101941601168091B0160586047
:1006A0001460101D70BD13465268002AE7D1214620
:1006B000284600F0C7F90028DED170BD70B50446A9
:1006C000051F00F0B7F90068002C14BF446870BD26
:1006D000002C18BFA54284BF20466468F8D8016882
:1006E0000A18AA4218BF456003D12A68054611447A
:1006F000016028684119A1421CBF6C6070BD61682F
:10070000696021680844286070BD007B00F08000AB
:10071000704700002DE9F041044616460D46476932
:10072000007B80072ED0384602F0FDF950BB3EB367
:10073000012E02D0022E25D104E0204600F0ECFA72
:1007400005441DE0384602F0E7F9E168002841F071
:100750001001E16005DA204600F058F80120BDE8FC
:10076000F081C9030BD56268E16A914200D8114655
:10077000A26911442269891A814200DD08460544B4
:10078000002D01DA0220EAE7E16A6068E26881424E
:1007900006D29103E06203D522F4003141F0100249
:1007A000A6690027AE4213DCE16A814201D90B46FB
:1007B00000E0034603EB060C2369ACEB030CAC45ED
:1007C00006DD814201D98C4600E084469C4505D176
:1007D000A760276042F02000A5620DE0AD1BE6692E
:1007E000AE1B8142A66000D90846C01A281A2060B4
:1007F0005819606022F0200003490840E0600020A2
:1008000084F84870ABE70000BFCFD7FFC16821F480
:10081000001141F08001C1600021816001607047DA
:100820002DE9F047814614460E464FF0FF38324816
:10083000D5685769054209D03846A16902F0AEF97A
:10084000002811DB2C48C0430540E5602B463246AA
:100850004946384602F0AAF9A16920F00042B21ACE
:1008600011440028A16103D02046FFF7CFFF404686
:10087000BDE8F08770B504460569C06A61688842C2
:1008800000D80846E16821F42011E160C90312D5BF
:10089000A84208D02246411B2846FFF7C1FF10B1ED
:1008A0004FF0FF3070BD0020E562C4E90150E06800
:1008B00020F48030E060002070BD10B50446C068B0
:1008C00020F02000E060A16AA06988420DD0204697
:1008D000FFF7D0FFE06820F4405040F01000E060E7
:1008E000A06AA0612069E062606044F24001E068B3
:1008F0008843E06010BD00001000020010B54248BF
:100900005421FFF741FE41485421FFF73DFE404886
:100910005421FFF739FE3F493B483C4A3F4B0860B2
:100920003D490A603A491960531C0365481C10652B
:10093000012008653B48344A39A17844FFF7A4FCFC
:1009400020B9384878440A3800F02CFA37482F4A42
:1009500035A17844FFF798FC20B9344878440A3828
:1009600000F020FA32482A4A2FA17844FFF78CFC85
:1009700020B92F4878440A3800F014FA402322485E
:10098000DC000021224600F0EAF920B12548784435
:10099000543800F007FA1D4822464023002100F099
:1009A000DEF920B121487844543800F0FBF91848AA
:1009B00022461023002100F0D2F9002806D01C485E
:1009C0007844BDE81040563800F0ECB910BD10482E
:1009D00070B5006D20F001040B48FFF7CBFC0B480D
:1009E000FFF7C8FC0A48FFF7C5FC09E0206D20F0BE
:1009F00001052046FFF7BEFC2046FFF75FFE2C46B0
:100A0000002CF3D170BD00002407002078070020DF
:100A1000CC07002024000020280000202C0000200B
:100A200072000000C24A000077000000B04A0000D7
:100A30009F4A000000487047280800207047704710
:100A40007047704738B504460A4600206946AFF340
:100A50000080002808BF38BD02460099204600F0FB
:100A6000D7F9012038BD012000F02EBAF8B5AFF358
:100A70000080054600200C46102000BF0646A8193D
:100A8000A0420DD9324669460020AFF3008007002E
:100A900008BF00F019FA0098A04218BF0546C41913
:100AA000FFF7C8FF05600746F01D20F00700461954
:100AB000284600F00AF8B44208BFF8BDA21B314630
:100AC0003868BDE8F84000F0A3B900210160C0E932
:100AD000011070471020704770B50D46014614464E
:100AE000D36850692A4602F051F8002807DA411C01
:100AF00007D0E16820F0004041F48041E160281A0D
:100B000070BD2046FFF782FE4FF0FF3070BDC16818
:100B10000022026021F4805141F0400111F4C06FC5
:100B2000C16001D08260704702694168891AC26958
:100B3000891A816070472DE9F0470446C06840F487
:100B40008000E060010313D520F40020E0608106FE
:100B500007D4E26A61688A4200D80A46A2EB010122
:100B6000216040F40010E06094F82500BDE8F087B3
:100B700020F40010E060800602D52046FFF79DFEBD
:100B8000E06842F281014FF0FF390140012903D0B2
:100B90002046FFF73BFEB8E02168002600290ADA6C
:100BA000C94340F480502160C4E902606068411C80
:100BB00061600078DAE744F2400108420ED020F488
:100BC000A04040F040002660E06021696068A0EB32
:100BD0000100E169A0EB0100A06096E0216991B9F4
:100BE000C00310D4E069FFF73AFD2061B0B1E068BE
:100BF00040F4006010F4407FE06002D140F4807067
:100C0000E06020696060E068D4F814A0C1061AD5DD
:100C1000C0030ED52046FFF72DFE14E004F124009A
:100C200020610120E061E06820F4407040F48060C1
:100C3000E6E721696068401AA1690144504601F065
:100C4000ADFF0028A4DBE068C0032AD56168E06A34
:100C5000884200D808462169451AE069471B1BD025
:100C60002046D4F81880FFF705FE08EB0501504632
:100C7000C4F8188001F092FF002889DBE06840F496
:100C80000030E060000202D5A0692844A061E1695B
:100C90002069C91B45180DE02046FFF7EBFDE76909
:100CA000F5E725696168D4E90607491BE562084450
:100CB0006560A061E06820F0100010F4C06FE06093
:100CC00002D0204600F0BEF8E06840F48050C4E94D
:100CD0000260000205D52069E06260606FF00100EB
:100CE00044E7224639462846FFF7F6FE411C0CD061
:100CF0002918E16258B1401E2060681C6060E068FD
:100D000040F40030E060287830E748462EE7656020
:100D10002046FFF7FCFEF8E710B50146C2689007D1
:100D200003D0900607D5886A0BE000F06DF801212A
:100D30000160881E10BD8B69486818440B69A0EBE0
:100D4000030091F8483023B191F84910A0EB01005D
:100D500010BD1103FCD50028FADD401E10BD70B592
:100D6000C468A50713D0650211D4B2F5807F09D0FD
:100D7000B2F5007F06D0B2F5806F08D1012300F1F3
:100D8000240106E05D1E6FF07F46B54201D30120CD
:100D900070BD0161C361416024F470611143C160A1
:100DA000002070BD10B500F075F8BDE8104000F0EF
:100DB0006BB8000000487047200800207546FFF718
:100DC000F9FFAE4605006946534620F00700854608
:100DD00018B020B5FFF720FABDE820404FF000061C
:100DE0004FF000074FF000084FF0000B21F0070113
:100DF000AC46ACE8C009ACE8C009ACE8C009ACE856
:100E0000C0098D4670470000004870472008002048
:100E1000034640688C46002818BF814284BF0346C1
:100E20004068F8D818681844884207D00CF10300CD
:100E300020F00700001D411A521A0146081D0A60E1
:100E4000FFF73CBC70B5054640F202260A4C0FE0A5
:100E500094F85000C00708D0AC4206D0E06836EAEB
:100E6000000002D1204600F037F8206D20F0010488
:100E7000002CEDD170BD0000240700200446AFF324
:100E800000802046FFF7A3F9002801D001F043BEFF
:100E90007047000010B5014602A000F04FF8012095
:100EA00010BD000053494752545245443A20526500
:100EB0006469726563743A2063616E2774206F7091
:100EC000656E3A200000000010B500F051F8BDE852
:100ED0001040FFF7D9BF000070B50446C068810715
:100EE00013D0800601D5A56A04E0A16960680844B2
:100EF0002169451A2046FFF7BDFC00220646294617
:100F00002046FFF707FC304670BD002070BD70B56D
:100F100010B1BDE87040DFE70025074C6E1E07E00A
:100F20002046FFF7D9FF00B13546206D20F00104BF
:100F3000002CF5D1284670BD2407002070B5054669
:100F40000C460A2000E06D1C01F038FE35B128780F
:100F50000028F8D102E0641C01F030FE14B12078C2
:100F60000028F8D1BDE870400A2001F027BE00003B
:100F700010B5012805D0002103A0FFF7DFFF0120F5
:100F800010BD09A1F8E7000053494752544D454DA3
:100F90003A204F7574206F662068656170206D651A
:100FA0006D6F7279000000003A2048656170206D15
:100FB000656D6F727920636F72727570746564000D
:100FC00038B5044600200090042C55D0082C53D08E
:100FD0000C2C51D0102C4FD0142C4DD0182C4BD0A1
:100FE0001C2C49D0202C47D0242C45D0282C43D071
:100FF000402C41D0442C3FD0482C3DD04C2C3BD0F1
:10100000502C39D0542C37D0582C35D05C2C33D0C0
:10101000602C31D0642C2FD0682C2DD06C2C2BD090
:10102000702C29D0742C27D0782C25D07C2C23D060
:10103000802C21D0842C1FD0882C1DD08C2C1BD030
:10104000902C19D0942C17D0982C15D09C2C13D000
:10105000A02C11D0A42C0FD0A82C0DD0AC2C0BD0D0
:10106000B02C09D0B42C07D0B82C05D0BC2C03D0A0
:10107000F62104A001F051FE1148204400900088A0
:1010800038BD00002E2E5C4C696272617269657316
:101090005C53544D3332463130785F53746450653D
:1010A000726970685F4472697665725C7372635CC2
:1010B00073746D3332663130785F626B702E63000B
:1010C000006C004038B5044600200D460090042C0A
:1010D00055D0082C53D00C2C51D0102C4FD0142CA0
:1010E0004DD0182C4BD01C2C49D0202C47D0242C70
:1010F00045D0282C43D0402C41D0442C3FD0482C04
:101100003DD04C2C3BD0502C39D0542C37D0582CBF
:1011100035D05C2C33D0602C31D0642C2FD0682C8F
:101120002DD06C2C2BD0702C29D0742C27D0782C5F
:1011300025D07C2C23D0802C21D0842C1FD0882C2F
:101140001DD08C2C1BD0902C19D0942C17D0982CFF
:1011500015D09C2C13D0A02C11D0A42C0FD0A82CCF
:101160000DD0AC2C0BD0B02C09D0B42C07D0B82C9F
:1011700005D0BC2C03D0E32103A001F0CEFD114823
:1011800020440090056038BD2E2E5C4C696272616F
:10119000726965735C53544D3332463130785F5316
:1011A00074645065726970685F4472697665725CD8
:1011B0007372635C73746D3332663130785F626B67
:1011C000702E6300006C0040FEE7000048F6A0416E
:1011D000884201D3002024E044F25061884201D3C8
:1011E00001201EE042F22831884201D3022018E09B
:1011F00041F29411884201D3032012E040F6CA0163
:10120000884201D304200CE040F26541884201D3BA
:10121000052006E040F23221884201D3062000E09A
:10122000072004490A8822F0380242EAC0000880F8
:1012300001207047003001400120704770470000D6
:1012400010B5012000F056F8002812D009484FF4DC
:1012500080620178012909D0074B1A60C1F10101B0
:101260000170BDE81040012000F016B8024B1B1FB2
:10127000F3E710BD1C0000201414014010B54FF41A
:101280008074204600F036F8002804D02046BDE8DF
:10129000104000F001B810BD10B50446000D00D19B
:1012A0001CB9FC2102A001F038FD1148046010BDFA
:1012B0002E2E5C4C69627261726965735C53544D89
:1012C0003332463130785F537464506572697068A8
:1012D0005F4472697665725C7372635C73746D33BC
:1012E00032663130785F657874692E6300000000E3
:1012F0001404014070B500250446012835D0022CA5
:1013000033D0042C31D0082C2FD0102C2DD0202CF1
:101310002BD0402C29D0802C27D0B4F5807F24D02E
:10132000B4F5007F21D0B4F5806F1ED0B4F5006F06
:101330001BD0B4F5805F18D0B4F5005F15D0B4F5BC
:10134000804F12D0B4F5004F0FD0B4F5803F0CD0D1
:10135000B4F5003F09D0B4F5802F06D0B4F5002FC6
:1013600003D0E52107A001F0D8FC16480068154914
:10137000204014310968214201D000B101252846DE
:1013800070BD00002E2E5C4C6962726172696573DB
:101390005C53544D3332463130785F53746450653A
:1013A000726970685F4472697665725C7372635CBF
:1013B00073746D3332663130785F657874692E638B
:1013C000000000000004014010B5044630F0350074
:1013D00000D124B940F2B65102A001F09EFC1148A0
:1013E000C46010BD2E2E5C4C6962726172696573B7
:1013F0005C53544D3332463130785F5374645065DA
:10140000726970685F4472697665725C7372635C5E
:1014100073746D3332663130785F666C6173682E39
:10142000630000000020024070B505461149A0F19C
:101430000060884204D340F2A7110FA001F06DFCB8
:101440004FF43026304600F0B5F8042811D11A4C7C
:10145000206940F0020020616561206940F0400091
:101460002061304600F0A6F8216941F6FD72114076
:10147000216170BDFFFF0F002E2E5C4C696272610E
:10148000726965735C53544D3332463130785F5323
:1014900074645065726970685F4472697665725CE5
:1014A0007372635C73746D3332663130785F666C6F
:1014B0006173682E63000000002002400849042088
:1014C000CA68D20701D001207047CA68520701D507
:1014D00002207047C968C906FBD503207047000089
:1014E000002002400248016941F08001016170471B
:1014F000002002402DE9F84305460E4600200090EA
:101500001449A5F10060884204D340F2AF2112A033
:1015100001F003FC4FF40057384600F04BF8042864
:1015200016D11D4C206940F0010020612E80B84684
:10153000384600F03FF8BF1E042806D1AD1C300C21
:1015400000952880404600F035F821693940216136
:10155000BDE8F883FFFF0F002E2E5C4C69627261BC
:10156000726965735C53544D3332463130785F5342
:1015700074645065726970685F4472697665725C04
:101580007372635C73746D3332663130785F666C8E
:101590006173682E63000000002002400348024986
:1015A00041600349416070472301674500200240C4
:1015B000AB89EFCD00B50346FFF780FF03E000BF26
:1015C000FFF77CFF5B1E012803D0002B00D1052014
:1015D00000BD002BF4D1FAE72DE9F84304460420BE
:1015E0008DF80000FFF7DAFF3420FFF7EDFE50A181
:1015F0005048FEF798FE4F4D083D002828601DD04A
:10160000C4F3C7260024DFF830814C4F08E000BF48
:1016100007EBC420FFF708FF8DF80000641CE4B25C
:10162000B442F5D375E046A1464800F0F7FF4248C2
:101630002E3810F8011B3A2902D00220BDE8F883A9
:101640003D4A0FE04378392B01D9373B00E0303B6E
:10165000392901D9373900E0303943EA011102F85C
:10166000011B801C01780029ECD198F80000464647
:10167000102803D23049091D415C317500232E4AE0
:101680001946001D06E000BF12F8014B491C234417
:10169000DBB2C9B28842F7D8D843401C317DC0B212
:1016A000814201D00120C9E7F07820B1012824D07F
:1016B00004282ED128E071786A68B07802EB012105
:1016C000471808F10406002407EB840056F824109C
:1016D000FFF710FF8DF80000641CE4B2042CF3D374
:1016E000102239463046FEF76BFE90B1FFF7FAFE46
:1016F0002868FEF73FFE0320A0E7FFF7F3FE286807
:10170000FEF738FE042099E7B8F8040040BA000458
:10171000686009482E212E382A68FEF790FD0028BF
:1017200081D1FFF7DFFE2868FEF724FE052085E75C
:1017300072000000080000205E0000200000020887
:101740002E000000003801402DE9F04105464648D2
:1017500000270E46854215D04448854212D04448A1
:1017600085420FD0434885420CD04348854209D07A
:101770004248854206D04248854203D0B22141A06A
:1017800001F0CBFAF07888B104280FD028280DD0CA
:1017900048280BD0142809D0102807D01C2805D0C1
:1017A000182803D0B32137A001F0B7FA308818B950
:1017B000B42134A001F0B1FAF07800F00F04C006B3
:1017C0000CD5B078012807D0022805D0032803D013
:1017D000BB212CA001F0A1FAB078044331784FF07E
:1017E0000F0E0120E1B12968338800FA07F2134097
:1017F000934211D14FEA870C0EFA0CF321EA03034E
:1018000004FA0CF11943F378282B02D0482B02D0AC
:1018100002E06A6100E02A617F1C082FE4D329609E
:101820003188FF291ED969685FF0000303F10802BF
:10183000378800FA02F2174097420FD14FEA830C23
:101840000EFA0CF7B94304FA0CF73943F778282F4E
:1018500000D16A61F778482F00D12A615B1C082B00
:10186000E4D36960BDE8F08100080140000C01404C
:10187000001001400014014000180140001C01400C
:10188000002001402E2E5C4C6962726172696573A2
:101890005C53544D3332463130785F537464506535
:1018A000726970685F4472697665725C7372635CBA
:1018B00073746D3332663130785F6770696F2E6391
:1018C0000000000070B5044611480D46844216D051
:1018D0001048844213D01048844210D00F488442EC
:1018E0000DD00F4884420AD00E48844207D00E48DB
:1018F000844204D040F279110CA001F00EFA25B90F
:101900004FF4BD7109A001F008FA656170BD0000D7
:1019100000080140000C014000100140001401408B
:1019200000180140001C0140002001402E2E5C4C9C
:1019300069627261726965735C53544D333246312A
:1019400030785F5374645065726970685F4472697F
:101950007665725C7372635C73746D3332663130BA
:10196000785F6770696F2E630000000070B50446F1
:1019700011480D46844216D01048844213D01048B6
:10198000844210D00F4884420DD00F4884420AD0C0
:101990000E48844207D00E48844204D040F26911B8
:1019A0000CA001F0BAF925B94FF4B57109A001F006
:1019B000B4F9256170BD000000080140000C014031
:1019C000001001400014014000180140001C0140BB
:1019D000002001402E2E5C4C696272617269657351
:1019E0005C53544D3332463130785F5374645065E4
:1019F000726970685F4472697665725C7372635C69
:101A000073746D3332663130785F6770696F2E633F
:101A10000000000070B505462A4816460C4685426F
:101A200016D02948854213D02848854210D028482E
:101A300085420DD0274885420AD02748854207D0E5
:101A40002648854204D040F28D1125A001F065F9A9
:101A5000012C2AD0022C28D0042C26D0082C24D0EB
:101A6000102C22D0202C20D0402C1ED0802C1CD01A
:101A7000B4F5807F19D0B4F5007F16D0B4F5806F2F
:101A800013D0B4F5006F10D0B4F5805F0DD0B4F56D
:101A9000005F0AD0B4F5804F07D0B4F5004F04D0F2
:101AA0004FF4C7710EA001F038F946B1012E04D0F1
:101AB00040F28F110AA001F030F92C6170BD6C6109
:101AC00070BD000000080140000C01400010014002
:101AD0000014014000180140001C0140002001409A
:101AE0002E2E5C4C69627261726965735C53544D51
:101AF0003332463130785F53746450657269706870
:101B00005F4472697665725C7372635C73746D3383
:101B100032663130785F6770696F2E6300000000B5
:101B200002480068C00700D000BEFEE7F0ED00E00C
:101B300002494CF6CC40086070470000003000407D
:101B400002494AF6AA2008607047000000300040B1
:101B500010B504000FD0012C0DD0022C0BD0032C9B
:101B600009D0042C07D0052C05D0062C03D07321F6
:101B700002A001F0D2F81148446010BD2E2E5C4C3A
:101B800069627261726965735C53544D33324631D8
:101B900030785F5374645065726970685F4472692D
:101BA0007665725C7372635C73746D333266313068
:101BB000785F697764672E630000000000300040A2
:101BC00010B50446B0F5805F03D3802102A001F078
:101BD000A4F81148846010BD2E2E5C4C69627261BD
:101BE000726965735C53544D3332463130785F53BC
:101BF00074645065726970685F4472697665725C7E
:101C00007372635C73746D3332663130785F6977F9
:101C100064672E63000000000030004010B50446E9
:101C2000A0F5AA40553804D01CB15F2102A001F0F4
:101C300074F81148046010BD2E2E5C4C696272610C
:101C4000726965735C53544D3332463130785F535B
:101C500074645065726970685F4472697665725C1D
:101C60007372635C73746D3332663130785F697799
:101C700064672E63000000000030004030B587B07C
:101C8000012141F2040000F00FF9A020ADF800009E
:101C900003208DF8020018202B4D8DF803006946B3
:101CA0002846FFF751FD4020ADF8000004208DF8D4
:101CB000030069462846FFF747FD1024ADF80040B1
:101CC0008DF8034069462846FFF73EFD102128465F
:101CD000FFF7F8FD0121082000F0E6F80120ADF83B
:101CE00000008DF80340194C69462046FFF72CFD93
:101CF00001212046FFF73AFE10212846FFF736FE65
:101D00000020ADF804004FF48271ADF806106115A3
:101D1000ADF80C00ADF80E103821ADF81010ADF88C
:101D20000800ADF80A00ADF812000720084CADF825
:101D3000140001A9204600F0D9F90121204600F045
:101D400041F907B0012030BD00080140000C0140FE
:101D500000300140FEE7704710B5040005D0012CAB
:101D600003D07F2102A000F0D8FF1048046210BD0C
:101D70002E2E5C4C69627261726965735C53544DBE
:101D80003332463130785F537464506572697068DD
:101D90005F4472697665725C7372635C73746D33F1
:101DA00032663130785F7077722E630000000E4229
:101DB00070B504460C480E46044200D124B940F2E6
:101DC00069410AA000F0A9FF174D4EB1012E04D0C1
:101DD00040F26A4105A000F0A0FFE869204301E05D
:101DE000E869A043E86170BD003601812E2E5C4C8D
:101DF00069627261726965735C53544D3332463166
:101E000030785F5374645065726970685F447269BA
:101E10007665725C7372635C73746D3332663130F5
:101E2000785F7263632E63000010024070B5044651
:101E30000C480E46044200D124B940F2C3410AA026
:101E400000F06BFF174D4EB1012E04D040F2C4419B
:101E500005A000F062FF2869204301E02869A04343
:101E6000286170BD003601812E2E5C4C6962726162
:101E7000726965735C53544D3332463130785F5329
:101E800074645065726970685F4472697665725CEB
:101E90007372635C73746D3332663130785F726372
:101EA000632E63000010024070B504460C480E46D5
:101EB000044200D124B940F24A410AA000F02DFFAB
:101EC000174D4EB1012E04D040F24B4105A000F059
:101ED00024FFA869204301E0A869A043A86170BD60
:101EE0000200C0FF2E2E5C4C6962726172696573DC
:101EF0005C53544D3332463130785F5374645065CF
:101F0000726970685F4472697665725C7372635C53
:101F100073746D3332663130785F7263632E6300A1
:101F20000010024070B504460C480E46044200D131
:101F300024B940F2A4410AA000F0EFFE174D4EB1C3
:101F4000012E04D040F2A54105A000F0E6FEE868AD
:101F5000204301E0E868A043E86070BD0200C0FFD4
:101F60002E2E5C4C69627261726965735C53544DCC
:101F70003332463130785F537464506572697068EB
:101F80005F4472697665725C7372635C73746D33FF
:101F900032663130785F7263632E63000010024056
:101FA00030B50022064BFF2406E09C811D89ED0719
:101FB000FCD09D898554521C8A42F6D3012030BD45
:101FC0000030014070B504460F480D4684420AD0E7
:101FD0000E48844207D00E48844204D04FF4D77193
:101FE0000CA000F09AFE55B1012D04D040F2AF11C3
:101FF00008A000F092FE208840F0400002E0208817
:1020000020F04000208070BD0030014000380040CA
:10201000003C00402E2E5C4C6962726172696573EF
:102020005C53544D3332463130785F53746450659D
:10203000726970685F4472697665725C7372635C22
:1020400073746D3332663130785F7370692E63005C
:10205000144910B5884219D01349884213D0134946
:10206000884205D0BDE810407A2111A000F055BE8D
:102070000121CC032046FFF7D9FE2046BDE81040E1
:102080000021FFF7D3BE01218C03F3E701210C03EC
:102090002046FFF747FF2046BDE810400021FFF72C
:1020A00041BF00000030014000380040003C0040CB
:1020B0002E2E5C4C69627261726965735C53544D7B
:1020C0003332463130785F5374645065726970689A
:1020D0005F4472697665725C7372635C73746D33AE
:1020E00032663130785F7370692E630070B50546D3
:1020F00042480C46854209D04148854206D04148B5
:10210000854203D0A32140A000F007FE208860B1E3
:10211000B0F5806F09D0B0F5004F06D0B0F5404F54
:1021200003D0A62138A000F0F8FD6088B0F5827FCA
:1021300004D018B1A72134A000F0EFFDA088B0F5BD
:10214000006F04D018B1A8212FA000F0E6FDE088B0
:1021500028B1022803D0A9212BA000F0DEFD2089A0
:1021600028B1012803D0AA2127A000F0D6FD60895C
:10217000B0F5007F04D018B1AB2123A000F0CDFD55
:10218000A08988B108280FD010280DD018280BD0AE
:10219000202809D0282807D0302805D0382803D097
:1021A000AC2119A000F0B9FDE08928B1802803D046
:1021B000AD2115A000F0B1FD208A18B9AE2112A002
:1021C00000F0ABFD2888628800F441512088E38844
:1021D0001043A2881A431043228910436289104396
:1021E000A2891043E289104308432880A88B20F479
:1021F0000060A883208A288270BD00000030014062
:1022000000380040003C00402E2E5C4C6962726138
:10221000726965735C53544D3332463130785F5385
:1022200074645065726970685F4472697665725C47
:102230007372635C73746D3332663130785F7370C0
:10224000692E6300034988810889C007FCD088890A
:10225000C0B270470030014010B50023094A06E0C3
:10226000C45C94811489A407FCD594895B1C8B42BF
:10227000F6D300E09089108910F0810FFAD1012087
:1022800010BD00000030014010B5C2B2102102485C
:10229000FFF7C0FB012010BD000801400CB5002174
:1022A000264801910091026842F4803202604FF4A6
:1022B000A063026802F400320092019A521C01925B
:1022C000009A12B9019A9A42F3D10268920333D567
:1022D000012100911A490A6842F010020A600A6856
:1022E00022F003020A600A6842F002020A604168B2
:1022F000416041684160416841F4806141604168EA
:1023000021F47C114160416841F4E81141600168A9
:1023100041F08071016001688901FCD5416821F0BC
:1023200003014160416841F0020141604168C1F32D
:1023300081010229FAD10CBD00910CBD00100240B0
:10234000002002400F4810B5016841F00101016012
:1023500041680D4A1140416001680C4A114001601A
:10236000016821F480210160416821F4FE0141608F
:102370004FF41F018160FFF791FF05494FF00060A6
:10238000086010BD001002400000FFF8FFFFF6FEDD
:1023900008ED00E010B5094C40F22551204600F050
:1023A000A9F8002808D0204600F054F9014620463C
:1023B000BDE8104000F092B910BD000000380140A7
:1023C00010B5094C40F22551204600F093F8002842
:1023D00008D0204600F03EF9C1B2BDE810400348E5
:1023E00000F07CB910BD00000044004000380140FE
:1023F00010B5074C40F22551204600F07BF800282C
:1024000004D02046BDE8104000F024B910BD000003
:10241000004800402DE9F047214F0026DFF8848076
:10242000DFF884900C460546B8420ED045450CD0E6
:102430004D450AD01D48854207D01D48854204D02D
:1024400040F26E311BA000F068FC012C21D0802CE2
:102450001FD0402C1DD0202C1BD0102C19D0B4F52F
:10246000807F16D0B4F5007F08D0082C11D0042C42
:102470000FD0022C0DD040F26F3107E0BD4208D0E2
:10248000454506D04D4504D040F2733109A000F017
:1024900044FC2888204200D001263046BDE8F08761
:1024A000003801400044004000480040004C00401B
:1024B000005000402E2E5C4C696272617269657337
:1024C0005C53544D3332463130785F5374645065F9
:1024D000726970685F4472697665725C7372635C7E
:1024E00073746D3332663130785F75736172742E38
:1024F000630000002DE9F047334F0026DFF8CC8061
:10250000DFF8CC900C460546B8420ED045450CD0BD
:102510004D450AD02F48854207D02F48854204D028
:1025200040F2C1312DA000F0F8FB40F66A10282CD3
:102530002CD0A4F5E061273928D0A4F5C061263954
:1025400024D0A4F5A061253920D0A4F580612439D8
:102550001CD0A4F50061463918D084420BD0B4F5E4
:10256000587F13D0B4F5187F10D0B4F5B07F0DD0DC
:1025700040F2C23107E0BD4208D0454506D04D4586
:1025800004D040F2C63115A000F0C7FB04F01F03D1
:102590000122C4F3421002FA03F1012810D00228EC
:1025A00010D0A88A08424FEA142102FA01F22988C1
:1025B00001EA020101D001B101263046BDE8F087F1
:1025C000A889EFE7288AEDE7003801400044004081
:1025D00000480040004C0040005000402E2E5C4C53
:1025E00069627261726965735C53544D333246316E
:1025F00030785F5374645065726970685F447269C3
:102600007665725C7372635C73746D3332663130FD
:10261000785F75736172742E6300000070B50C46AC
:10262000054603E0641C284600F004F821780029E0
:10263000F8D170BD70B50C46054680212846FFF7DD
:10264000E9FE0028F9D021462846BDE8704000F098
:1026500045B8000010B504460B48844210D00B4822
:1026600084420DD00A4884420AD00A48844207D0E6
:102670000948844204D04FF4197108A000F04DFBC2
:10268000A088C0F3080010BD00380140004400409D
:1026900000480040004C0040005000402E2E5C4C92
:1026A00069627261726965735C53544D33324631AD
:1026B00030785F5374645065726970685F44726902
:1026C0007665725C7372635C73746D33326631303D
:1026D000785F75736172742E6300000070B50446F4
:1026E00010480D46844210D00F4884420DD00F4848
:1026F00084420AD00E48844207D00E48844204D057
:1027000040F253210CA000F008FBB5F5007F04D384
:102710004FF4157108A000F000FBC5F30800A0807D
:1027200070BD0000003801400044004000480040F7
:10273000004C0040005000402E2E5C4C69627261DB
:10274000726965735C53544D3332463130785F5350
:1027500074645065726970685F4472697665725C12
:102760007372635C73746D3332663130785F757386
:102770006172742E630000000D4910B54FF4801093
:1027800008600B4C103C206880B22060206809492A
:10279000084320600848FFF75BFC10212046FFF744
:1027A00091F801210548FFF78DF8012010BD0000C8
:1027B000100801400000444400300140000C01407A
:1027C000FEE7000070B504461148AFF300801149E0
:1027D00004EBC40001EB8004002620884FF0FF3595
:1027E0008107002906D00ADA8006204604D501F0C8
:1027F000A8F803E02C4604E000F08CFE30B12680FF
:1028000000240348AFF30080204670BD2680F1E726
:10281000200000207400002010B504460C48AFF3DF
:1028200000800C4904EBC40001EB80042088810780
:1028300003D0800603D5A46805E0002403E0204609
:1028400000F063FE64680248AFF30080204610BDCC
:1028500020000020740000202DE9F84306460F46B2
:102860006648AFF30080684601F032FA04004FF08A
:10287000FF3575D00146304601F04EFA8146206999
:102880000028F6D017F00C0004D004280AD008283D
:1028900066D103E0208840F0010006E0208840F087
:1028A00004002080208840F00200208017F0060FEE
:1028B00004D0484601F0FAF9002851D12088DFF809
:1028C000408180064FF000064BD52146484600F077
:1028D00093FE012803D02088C00772D133E0002185
:1028E0004848C4461BE000BFB0F800805FEA887229
:1028F00013D0026923699A420FD1A0420DD0C28A37
:10290000E38A9A4209D1026A236A9A4205D15FEAB0
:10291000887270D4228892076DD4491C2430BCF888
:1029200000209142E0DB208810F0050F06D0B907A7
:102930005AD500BF40F00B00208055E021464846A4
:1029400000F017FEE8B3208810F0060F04D02146EF
:10295000484600F0E3FDA0B3B80745D52088E9E775
:1029600043E0B80741D42146484600F0CCFD012899
:1029700003D02088C0073ED130E0002121484246E4
:1029800017E000BFB0F800C05FEA8C730FD0036996
:102990002769BB420BD1A04209D0838AA78ABB42D8
:1029A00005D15FEA8C7326D423889B0723D4491C66
:1029B000243013889942E5DB2088410705D520465D
:1029C00000E018E000F0A1FD0EE0C00702D0E069D1
:1029D000206209E0204600F094FD60B1A682214605
:1029E000484600F08CFD30B1009D0448AFF30080F4
:1029F0002846BDE8F8832680F7E700002000002085
:102A0000DC530008740000202DE9F04107460E4613
:102A100015461348AFF3008045F00044CEB111498C
:102A200007EBC70001EB800001888A0711D001F095
:102A30000F02022A06D089062A46314605D500F043
:102A4000E9FE04E04FF0FF3403E000F05FFD00B169
:102A50002C1A0348AFF300802046BDE8F081000047
:102A6000200000207400002070B504460D460E487A
:102A7000AFF300800D4904EBC40001EB80004FF080
:102A8000FF3401888A070AD08906294602D500F05A
:102A90001BFF01E000F03CFD012800D100240248AA
:102AA000AFF30080204670BD20000020740000209D
:102AB0002DE9F04107460D4616461148AFF3008058
:102AC0004FF0FF34B5B10F4907EBC70001EB8000B1
:102AD00001888A070ED001F00F02012A0AD0890668
:102AE0003246294602D500F0A7FF01E000F014FDB0
:102AF00000B100240248AFF300802046BDE8F08119
:102B00002000002074000020B0F5004F01DD0020FF
:102B10007047FFF757BEFEE7B0F5004F01DD00201C
:102B20007047FFF779BEB0F5004F01DD0120704717
:102B30000020704770B50C4605460EA1FDF74CFD10
:102B400078B10EA12846FDF747FD68B10DA12846D2
:102B5000FDF742FD58B121462846BDE87040FFF719
:102B60007BBE48F2010070BD48F2020070BD48F221
:102B7000030070BD535444494E0000005354444F69
:102B8000555400005354444552520000B0F5004FD4
:102B900002DD4FF0FF307047FFF736BFB0F5004F52
:102BA00002DD4FF0FF307047FFF75EBFB0F5004F1A
:102BB00002DD4FF0FF307047FFF77ABF70472DE915
:102BC000F84F05464FF00009C86900900C460127F0
:102BD000C8464E46284600F0EAF8012808D12846A3
:102BE000FDF71AFC0C300D21B0FBF1F0401CC7B210
:102BF0002069009901F04EF982460025206990F87D
:102C00007B1019B1B5F5007F56D02AE0818FA9421B
:102C100027D1016C009A0025914200D900916946A4
:102C2000009E02F0BFF8002847D02069009901F00B
:102C300069FB88B1009601226946206900F048F8D6
:102C400000283AD02069009900F044F9002834D0D7
:102C50004FF00008009E34E02069009900F058F918
:102C600082460AEB1511206901F062FF002824D08A
:102C70002069C16D05F00F0001EB4010007838B1FC
:102C8000FF2805D0E52803D04FF000096D1CB5E7FB
:102C9000B9F1000F02D1009E1FFA85F809F1010178
:102CA000C9B28946E5280AD0206990F87B0040B176
:102CB000C7F50070A84204D20020BDE8F88FB942E1
:102CC000E4D12169A1F87880206946670120F4E702
:102CD0002DE9F041154607460C460E6801F00AF949
:102CE000002818D0384601F055F8024638462168C9
:102CF00002F0B4FA00280ED035B1314638462268C9
:102D000002F0ACFA002806D00021384600F006F8A0
:102D1000002800D00120BDE8F081FEE770B5044630
:102D2000806C0D46A8423ED094F85010012928D15D
:102D300066697EB1216889060CD5617F022906D0BB
:102D4000002201463046E36C01F022F814E0218CA9
:102D50004218F6E76268E16CD368012298470028C0
:102D600020D0607F022809D16268218CA06CD368D2
:102D70000844E16C01229847002813D0002084F811
:102D8000500085B194F85100218C62684843284472
:102D90009368E16C01229847012806D04FF0FF307C
:102DA000A064002070BD012070BDA564FBE72DE983
:102DB000F04100270446B8463D463E4625E002F075
:102DC0005EF938B32078202824D02E2814D0A0F122
:102DD0006101192902D92031192907D8B8F1000F4A
:102DE00003D088EA0001890614D480464FB13046EA
:102DF000761C02280ED806E067B9641C002601275D
:102E000003E0082D06D26D1C641C20780028D6D162
:102E10000C2D02D30120BDE8F0810020FBE7012347
:102E200001F0B0BEF8B5C1690446009100293DD05B
:102E3000206900F06DF8074600252069818FA942BE
:102E40000FD10025694601F0ADFF00282FD0206981
:102E5000009901F057FA58BB2069009900F058F822
:102E6000074607EB1511206901F062FE00281ED00D
:102E7000206905F00F01C06D00EB411630782E2857
:102E800009D10CA13046FDF7A7FB68B10DA1304672
:102E9000FDF7A2FB40B1307850B1E52804D0F07ABC
:102EA0000F2803D0000701D56D1CC6E70020F8BD30
:102EB0000120F8BD2E2020202020202020202010BE
:102EC000000000002E2E2020202020202020201076
:102ED0000000000070B5054600F01AF806464FF4F1
:102EE0000071E86DFDF72EFB002406E0311928463D
:102EF00002F0E3F800280AD0641CA87FA042F5D8AD
:102F00000021284602F0D9F8002800D0012070BD29
:102F1000838E82691A44037F032B01D0C38E1A4427
:102F2000807F891E00FB012070472DE9F041044697
:102F3000007F0025012806D0022838D0032857D06A
:102F40000020BDE8F08102262CE03146204600F04A
:102F5000B7FF804601462046FFF7E0FE002867D015
:102F600006EB4600C0F34800B0F5FF7F04D8E16CE3
:102F7000084401F04DF90CE0E06C08F1010190F813
:102F8000FF712046FFF7CAFE88B3E06C007847EA7D
:102F90000020F10701D0000901E0C0F30B0000B9E7
:102FA0006D1C761C206B801CB042CED840E0022104
:102FB000204600F085FF074601462046FFF7AEFE9B
:102FC000A8B102260FE016F0FF0F05D17F1C39468D
:102FD0002046FFF7A3FE50B1E06CF1B230F81100CB
:102FE00000B96D1C761C206B801CB042EBD81FE032
:102FF0000221204600F064FF074601462046FFF705
:103000008DFEA8B102260FE0700605D17F1C39465F
:103010002046FFF783FE58B1E06C06F07F0150F8C0
:10302000210000B96D1C761C206B801CB042EBD8CF
:10303000284686E72DE9F04389B00E46904699462A
:103040000546FFF7B4FE88B301271B4C1CE042463F
:10305000314604A8FFF7E3FE28B1A74214D90020A7
:1030600009B0BDE8F083694604A800F0ACF9002877
:10307000F6D0684601F062F902463146284600F073
:103080001DF80028ECD007E03A467F1C04A928462A
:1030900000F0DEFF0128DAD04B4642463146684652
:1030A00000F0B0F80028DBD00120D9E7FFE769463F
:1030B000284600F088F9E4E73E420F002DE9F74F7B
:1030C000086982B00C46416F0091B0F878504FF01B
:1030D000000B0298FDF7A0F981462069009900F0E5
:1030E000D9FE8246D846464E7DE0206990F87B1096
:1030F00031B1B5F5007F1DD1002005B0BDE8F08FDE
:10310000818FA94216D1016C009A0025914200D905
:10311000009101226946FFF7DBFD0028EDD0206910
:103120000099FFF7D7FE0028E7D020690099FFF744
:10313000EFFE82460AEB15110191206901F0F8FCBF
:103140000028DAD0206905F00F010D22C06DBBF117
:10315000000F00EB411109F10C00B0FBF2F0C0B21E
:10316000087001D0002200E0402210430870049A49
:103170004A73A1F81A800F2200F01F00CA72401E85
:1031800000EB800202EBC000029A4FF0010B131813
:1031900000204A1C1F5C4FB116F800C001F80C70EB
:1031A000375C401C0D2807F80280F3D3002305E0AC
:1031B000375CCB55375CBB54FF23401C0D28F7D33D
:1031C000B9F10C0F02D9A9F10D0000E000208146F1
:1031D000E843000706D101222069019902F0E6F8D0
:1031E00000288AD06D1CB9F1000F7FF47EAF2169F1
:1031F000009848672069A0F8785001207DE700001A
:10320000D05400082DE9FC5F06460D469A46012A77
:103210000DD0002081462869416F0091B0F8787088
:1032200090F87B2042B1B7F5007F02D018E0012072
:10323000F0E70020BDE8FC9F828FBA4210D1026CFB
:1032400000278A4200D9009201226946FFF740FD1B
:103250000028EFD028690099FFF73CFE0028E9D04C
:103260002869009900F016FE00EB17118B462869BB
:1032700001F05EFC0028DDD0286907F00F01C06D69
:1032800000EB41140020315C2154401C0B28FAD380
:103290005FEA0A004FF0000837D00646C07AE072B5
:1032A00084F80C8084F80D80F089E081308A2082D7
:1032B00000F0DAFD014604F1120001F0B9FDB08A18
:1032C000A08200F08DFF014604F1160001F0B0FD70
:1032D000608A2083708B6083F069E061F0696860C8
:1032E000F069C5E9020806F11A0000F091FF0446F2
:1032F00006F1140000F08CFF04EB0040E8610122AD
:103300005946286902F052F856E084F80C8084F897
:103310000D8000F065FF014604F10E0001F088FD0C
:1033200000F0A2FD014604F1100001F081FD208AA9
:103330006082E189E1822083C4F81C80C5F80C809A
:10334000C5F80480C5F80880B9F1000F1ED0102020
:10335000E072009901912869006C884200D90190BF
:10336000002201A92869FFF7B3FC00283FF462AFEF
:103370000198E861010C04F1140001F059FD019875
:1033800081B204F11A0001F053FD07E02020E07241
:10339000A4F81480A4F81A80C5F81C8001225946AC
:1033A000286902F003F80028E0D0B9F1000F05D039
:1033B00028690199FFF78EFD0028D7D0EF82009889
:1033C0002862012036E72DE9F041002704460D462A
:1033D000384620212954401C0B28FBD300212954B6
:1033E00020786178A2782E2806D111B12E2902D03A
:1033F00002E0287031E0AAB10026207868B32E28B8
:1034000013D020280AD001F031FEA0F16101A855A7
:10341000192902D820F02000A855761C641C082E1B
:10342000EBD304E02870687017E00127641C0826BD
:10343000207890B12E2813D020280BD057B101F05E
:1034400015FEA0F16101A855192902D820F020002D
:10345000A855761C641C0B2EEAD30120BDE8F08130
:103460000127F7E72DE9F8430546006990F87A60EF
:10347000416F0091B0F8784000F00CFD07463AE04B
:10348000286990F87B1029B1B4F5007F15D1002090
:10349000BDE8F883818FA1420FD1016C009A00240E
:1034A000914200D90091694601F07CFC0028EFD0E0
:1034B00028690099FFF72CFD074607EB1411884691
:1034C000286901F035FB0028E2D0286904F00F01DB
:1034D000761EC06DF6B200EB4110E5210170E043AD
:1034E000000700D036B901224146286901F05EFF8D
:1034F0000028CDD0641C002EC2D10120C8E70020D6
:1035000070470020704700207047704700207047C8
:1035100000207047002070470020704770B50546B6
:103520000C460869142100F08FFB002820D0287871
:103530005C2800D16D1C2878002819D00020E0619B
:1035400001222146284600F07DF8002810D020698D
:1035500021467C30FFF733FB002809D02069002387
:103560007C301A462146FFF765FD002800D0012077
:1035700070BD70B505460C460869142100F064FB67
:10358000002838D028785C2800D16D1C28780028C5
:1035900031D000200246E0612146284600F052F872
:1035A000002828D0206990F87C1029B17C300022B6
:1035B000214600F0D7FA02E02046FFF733FC00284E
:1035C00019D02046FFF74EFF002814D0E16920698A
:1035D00001F098FC00280ED02069017F032909D151
:1035E00001F0B0FE002806D00021206901F065FD41
:1035F000002800D0012070BD70B505460C46086952
:10360000042100F021FB00281BD028785C2800D181
:103610006D1C2878002814D0002632462146284602
:10362000E66100F00FF800280BD0206900227C3002
:10363000214600F097FA002803D06675E069A06182
:10364000012070BD2DE9F047002706460D46914642
:10365000B84620E0286901227C30294600F082FA31
:10366000C0B95FEA09002DD00127286929467C30BE
:10367000FFF7A5FA002825D0286900237C30012215
:103680002946FFF7D7FC00281CD0284601F064FD2E
:10369000002817D0264429697C3100242046325D59
:1036A0005C2A06D0222A04D04AB10A54401C641C69
:1036B000F5E7641C01F80080002FD6D1CAE701F8B5
:1036C00000800120BDE8F0872DE9F0414FF0FF3583
:1036D00000F148048564806860604FF0000626723F
:1036E000667200F5007100F58060E560C4E90510C0
:1036F000267766774FF00208C4F82480A4F14804C6
:103700004FF0300104F11800FCF73EFF0021204685
:1037100001F00EFA08B3E06D00F5FF7000F078FDDF
:10372000A0F52A41553918D1E06D0178E9290AD070
:10373000EB2902D18178902905D000F5E37000F0E3
:103740006CFDA06100E0A661204600F035FB38B1B9
:10375000E18DB1F5007F40D104E00220BDE8F081A9
:103760000320FBE7A07F08280DD006DC01280AD043
:10377000022808D0042830D105E0102803D02028E2
:1037800001D0402829D1B4F822C0BCF1000F24D0C8
:10379000627F012A01D0022A1FD1238C666AB342BC
:1037A0001BD8A78D02FB03C305EB471505F5007574
:1037B00095FBF1F15A18B21AA262B2FBF0F2226341
:1037C000A386E1864002A0634009A08740F6F57019
:1037D000824204D20120207716E00420BEE74FF693
:1037E000F570824202D284F81C800DE0032020771D
:1037F000204600F0EDFB38B92046FFF796FBA066A7
:10380000204601F09FFD08B10020A7E70520A5E7AD
:10381000012070472DE9F047044600888946174685
:10382000C00613D40421206900F00EFA50B1E068FC
:10383000A168C2198A4201D90F1A07D0C0F308063D
:1038400000253AE0208840F0100020800020BDE8EC
:10385000F087A1692069FFF75BFB627D8118206911
:10386000837F9A1A01F00CF90028F0D0A7EB050825
:1038700008EB0600B0F5007F01D9C6F50078206995
:103880004246C06D811909EB0500FCF7E4FD06EB2B
:103890000800C605F60D0FD1607D401CC1B26175F0
:1038A0002069827F914207D10021617504F11801DE
:1038B00001F078FA0028CAD04544BD42C9D3E06877
:1038C0002844E0602846C2E72DE9F041044600881C
:1038D0000D46C00602D50020BDE8F0810421206914
:1038E00000F0B2F940B3A068A84200D205462069B2
:1038F000690A827FB1FBF2F302FB13116175E7697C
:10390000A761806BB5FBF0F656B104F1180841468B
:10391000A769206901F046FA0028DDD0761EF6D1AD
:10392000A169206900F0EEFC18B12069807F607504
:10393000A7610120E560CFE7208840F010002080DB
:10394000C9E7F0B50446008889B0C0065FD41421E9
:10395000206900F079F9002855D0D4E901018142AD
:103960004CD9491E2046FFF7AFFF002850D02069F0
:1039700000F010FA0246A169206901F06FFC0028EE
:1039800046D06946204601F0B8F8002840D0E069EA
:10399000000CADF81400E069ADF81A00A0680790BB
:1039A00000F01EFC01460DF1160001F041FA00F096
:1039B0005BFA014606A801F03BFABDF81800ADF825
:1039C00012006F46E58A216A206900F063FA00EB75
:1039D00015110E46206901F0ABF8C0B1206905F061
:1039E0000F012022C06D00EB41103946FCF778FD35
:1039F00001223146206901F0D9FC40B12069017FE4
:103A0000032907D00AE0208840F010002080002021
:103A100009B0F0BD01F096FC0028F9D00021206922
:103A200001F04BFB0028F3D000212069FFF776F965
:103A30000028EDD00120EBE72DE9F74F0446008880
:103A400082B01746C00603D5002005B0BDE8F08F50
:103A50001421206900F0F8F8002820880BD04FF4DA
:103A6000007909EA801B04F11800E1694FF0000AAF
:103A7000009021B10DE040F010002080E4E72069C3
:103A8000009900F037FA0028DFD0A069E06184F8DF
:103A900015A0E0680025C0F308064CE02069627DAF
:103AA000817F8A4218D1E168A2682944914203D2F9
:103AB000009901F077F90BE0D4F81880009900F034
:103AC00019FA0028C1D04146A269206901F0C6FB5D
:103AD0000028BAD084F815A0A1692069FFF718FA68
:103AE000617DA7EB05080844019008EB06004845F6
:103AF00001D9C6F500780EB9D84505D220690199DB
:103B000001F016F80028A0D0039842464119206918
:103B1000C06D3044FCF79FFC2069019901F0CDFA9B
:103B2000002892D006EB0800C605F60D02D1607D94
:103B3000401C60754544BD42B0D3E0682844E06055
:103B4000A168884200D9A06001207EE701680029B1
:103B500001DCFCF7F0BF491E016041684A1C42606D
:103B600008787047002301F00DB80000F0B5044656
:103B700089B01A48AFF3008000F036F8BCB10020DD
:103B8000ADF8000004906946204600F0C5F804989E
:103B900008B3BDF8000000F02001049800F048FBD5
:103BA00004460E48AFF3008009B02046F0BD002463
:103BB0000B4D26460B4F0AE0E87900F00401286817
:103BC00000F036FBA04200DD0446761C083538883C
:103BD0008642F1DBE5E70324E3E700002000002054
:103BE000F8530008DE53000870B5124C2078002806
:103BF0001ED100F041F800220F4811460F4B05E09E
:103C0000C5796D0750F8085B521C29601D88AA42CF
:103C1000F6D300200A4B0B4A05E000BF00EBC005BD
:103C2000401C23F825101588A842F7D301202070E6
:103C300070BD00001D000020F8530008DE5300088E
:103C400074000020DC53000810B50446006881436E
:103C500001D0002010BD000706D460680021426931
:103C600008469047C00701D0012010BD206820F011
:103C700006002060EDE7000008480021A0F5806202
:103C8000C0E90221064A426000F5C273054A9A6003
:103C900041610182044800687047000094050020DB
:103CA000E0530008145400082000002060B101789F
:103CB00051B1012100E0491C425C002AFBD10844BB
:103CC00010F8010C5C2801D00020704701207047DB
:103CD00070B5064600240A4D0A4804E02988890781
:103CE00006D02435641C01888C42F7DB002070BDAF
:103CF00024212846FCF748FC06B13460284670BDF4
:103D000074000020DC530008004870470101DB0705
:103D10004FF4402070470000F0B51B4A1B4CE8B13F
:103D20000378DBB123F0200643783A2B03D0857863
:103D30003A2D03D012E03023801C01E073B1C01C87
:103D4000002507E01779B74202D157799F420AD080
:103D50006D1C08322788BD42F4DBF0BD00230EE065
:103D6000D579ED0709D013680B61D2795207F4D5E4
:103D70000A8842F020020A80F0BD5B1C08322588C8
:103D8000AB42EDDBF0BD0000F8530008DE53000845
:103D900000207047007F012805D0022806D00328A4
:103DA00007D00020704740F6FF7070474FF6FF7055
:103DB00070476FF07040704710B50446816900F09D
:103DC000B7FE002809D0E06D00F5FF7000F020FA82
:103DD000A0F52A41553901D0002010BDE06D417B8E
:103DE000A1770B3000F014FAE085E06D0E3000F0A2
:103DF0000FFA6084E06D017C6177113000F008FA01
:103E0000A085E06D133000F003FA6062E06D1630BB
:103E100000F0FEF92084616AE9B9B8B9E06D283094
:103E200000F0F6F9E087E06D2C3000F0F6F9206440
:103E3000E06D303000F0ECF9A4F84400E06D323071
:103E400000F0E6F9A4F84600606A20B9E06D203081
:103E500000F0E3F96062208C20B9E06D243000F0BE
:103E6000DCF92084012010BD10B5FFF74DFF10F0E4
:103E70001F0100D10121C0F303220C2A00D802B98E
:103E8000012241EA4211442202EB104041EA402063
:103E900080B210BD10B5002280F87B2059B90267AE
:103EA000017F032906D0828E81691144012280F8A6
:103EB0007B2003E0016CFFF72BF80146084610BD9C
:103EC000027F012A04D0022A06D0032A0AD105E083
:103ED00001EB4101890A02E0090A00E0C909028CEC
:103EE0008A4201D8002070478269408C10440844FF
:103EF000704700002DE9F04105460E46C46E5CE0B7
:103F000021462846FFF7DCFF804601462846FEF79B
:103F100005FF002838D0287F012804D0022823D0AC
:103F2000032830D127E004EB4400C0F34800B0F58B
:103F3000FF7F04D8E96C084400F06AF90DE0E86CF2
:103F400008F1010190F8FF712846FEF7E7FE00280E
:103F50001AD0E86C007847EA0020E10701D0000998
:103F60000FE0C0F30B000CE0E96C200601EBD05031
:103F700000F04EF905E0E96C600601EBD05000F06E
:103F80004CF918B118E00020BDE8F0810E4800217E
:103F900002880E4809E003889F0604D59B0702D5D6
:103FA0008369A34208D02430491C9142F3D3346082
:103FB000641C0120EC66E7E7641C286B801CA042AF
:103FC0009ED8EC66DFE70000DC5300087400002098
:103FD00010B504468069B4F844100144204600F04E
:103FE000A7FD002829D0E06D00F5FE7000F015F95E
:103FF0001449884220D1E06D00F00FF9124988423F
:104000001AD1E06D00F5F27000F007F90F4988420F
:1040100012D1E06D00F5F47000F0FFF8216B8142E1
:104020000AD3A066E06D00F5F67000F0F6F80228FD
:1040300002D3216B814201D2002010BDE066012035
:1040400010BD0000000055AA5252614172724161D8
:104050002DE9F84F834660480E4615464FF0000A9A
:104060004FF6FF78824201DD062713E042F20F701F
:10407000854201DD05270DE0B5F57A7F01DB0427D8
:1040800008E0632D01DD032704E0092D01DD02278F
:1040900000E00127002003E02E2900D18046401CCB
:1040A0001BF800100029F7D105B94F1E4FF0000989
:1040B000C7F107004C46009018E000BF1BF809A0AC
:1040C000BAF1200F10D0BAF12E0F0DD0BAF1000FB7
:1040D00011D0AAF16100192801D82AF0200A50460F
:1040E00000F0C4FF3055641C09F10109C14502D23A
:1040F0000098A042E2D8EDB37E203055641C072F13
:1041000046D2DFE807F04542352A1E120400324845
:104110003249401C95FBF0F0414305EB411509285D
:1041200000D9092030303055641C42F2107095FBE4
:10413000F0F06FF41C7141433030305505EB011540
:10414000641C4FF47A7095FBF0F06FF07C014143F2
:104150003030305505EBC105641C642095FBF0F050
:104160006FF0180141433030305505EB8105641C78
:104170000A2000E00CE095FBF0F04142303001EB0A
:104180008101305505EB4105641C30353555641C03
:10419000BAF1000F1AD02E203055641CA8F57F41CB
:1041A0004046FF3912D0451C071D0DE01BF80500E5
:1041B00060B1A0F16101192901D820F0200000F0C0
:1041C00055FF3055641C6D1CBD42EFD300203055A7
:1041D0000120BDE8F88F00009F860100CBF3FFFFB0
:1041E00010B5FFF795FDC0F344011D2900D900214A
:1041F000C0F305223B2A00D90022C0F3044041EA63
:104200004211172800D9172041EAC02080B210BD02
:104210004178007840EA01207047C1788278090629
:1042200041EA02414278007841EA0221084370479E
:1042300010B504460020B9B3616819B12168C907F7
:1042400002D00BE0032010BD2060606801680020F0
:10425000884750B3206840F001012160206820F0B9
:104260001E012160606800214269084690470106EE
:1042700003D5206840F0180106E0C1073AD0800756
:1042800003D4206840F010012160606801680120BB
:10429000884750B1206840F0020120462160FFF7B6
:1042A00013FA18B1022010BD0AE023E0206840F0A4
:1042B000040120462160FFF7ABFA00BB0420F2E7BF
:1042C0002084616869B12168C9070AD12060D4E9F6
:1042D0000120E1691268904760B1206840F0010058
:1042E0002060206840F004002060616821B1896886
:1042F00011B104E00120D6E740F01000206000205A
:10430000D1E70000007F012804D0022805D003284F
:104310000FD107E040F6F87001E04FF6F8708142E7
:1043200005D206E021F070400349884201D3012004
:104330007047002070470000F8FFFF0F0246002082
:104340000146C30700D0802303EB5000535C491C97
:104350001844C0B20B29F4D37047000000F086FD6A
:1043600001214FF0C050FDF723FD0120FDF7F4FCC3
:104370001020FCF725FE204DA0F58851113930D1D1
:104380001EA12846FEF74AF90A240AE02000A4F1FB
:104390000104E4B205D120A12846FEF73FF900F060
:1043A0004FFE0020FFF7E2FB0028EFD11820FCF7BA
:1043B00007FE04461420FCF703FE44EA0040FDF724
:1043C0000BF9042802D0012108B901E000210120E5
:1043D000014301D000F034FE41F210011020FCF73F
:1043E00071FE13A12846FEF719F9194844680068C0
:1043F000FBF7FDFEA047FEE70038014055706772ED
:104400006164696E67206669726D77617265202EDE
:104410002E2E0D0A00000000496E697469616C69F6
:104420007A6174696F6E206661696C65642E0D0037
:104430004A756D70696E6720746F206170702061BD
:10444000646472657373202E2E2E0D0A0000000026
:1044500000000208014A00F021B8000018070020FF
:10446000014900F028B8000018070020014900F0B9
:104470001FB9000018070020014B00F029B9000007
:1044800018070020014900F04FB90000180700206C
:10449000014B00F055B900001807002018B10228A0
:1044A00007D0002070479068C06900B100478020A5
:1044B0007047506870472DE9F8430C4610B1012849
:1044C0007DD104E0886800688047BDE8F883A06873
:1044D000816901208847A06841694FF4C870884706
:1044E0000025A0688168FF2088476D1C102DF8D337
:1044F000A0688169002088470022234611461046A3
:1045000000F04CF905460026012D07D0A06881680F
:10451000FF208847761C0546642EF5D3A068816984
:1045200001208847012DCBD1A068416944F6206065
:10453000884700202070A0688169002088470426F1
:104540008DF8006023466A464FF4D571082000F0CC
:1045500025F901280FD19DF8000060B99DF80100F0
:1045600048B99DF80200012805D19DF80300AA284A
:1045700001D103202070A0688169012088470025AF
:104580004CF25038A06881690020884700222346F9
:104590001146372000F002F90746A0688169012022
:1045A000884778071AD4012F15D1A06881690020A7
:1045B00088472078032815D00020810700E06EE0AE
:1045C00023460022292000F0E9F80746A068816907
:1045D0000120884747B16D1C4545D3D32078032877
:1045E00007D01EE00120E8E72078032801D0022050
:1045F00033E0A0688169002088478DF80060234679
:104600006A4600213A2000F0C9F80546A068816991
:10461000012088472DB99DF80000400601D526707D
:104620001CE02078D0B900254746A06881690020A9
:104630008847002223461146012000F0AFF80646C5
:10464000A068816901208847012E01D03EBB03E0AC
:104650006D1CBD42E9D322E001202070A068816971
:1046600000208847234600224FF40071102000F0FC
:1046700095F80546A0688169012088477DB9A06842
:104680008169002088470022234611463B2000F024
:1046900085F80546A0688169012088470DB1002092
:1046A00013E7204600F002F90028F9D001200CE7BA
:1046B00070B505460C46084600F0F8F8002806D00C
:1046C0002146284600F017F9002800D0012070BDCF
:1046D0002DE9F041064698680F46154681691C464B
:1046E0000020884723462A463946304600F0A6F87F
:1046F0000646012D0FD90022234611460C2000F05A
:104700004DF8084DA0688168FF208847FF2802D037
:104710006D1EF7D10026A0688169012088473046C8
:10472000BDE8F08148E8010038B101284FF00000F1
:1047300002D10870486001207047886840680047CF
:104740002DE9F041064698680F46154681691C46DA
:104750000020884723462A463946304600F046F96D
:104760000646012D11D9A0688168FD208847A06800
:104770008168FF208847084DA0688168FF2088472E
:10478000FF2802D06D1EF7D10026A06881690120A4
:1047900088473046BDE8F08148E801002DE9FC413A
:1047A00040F040008DF80000080E8DF80100080C64
:1047B0008DF80200080A8DF80300002014461D46FB
:1047C0008DF804106A46014605234E0707D1B3EB66
:1047D000D10F04D902EBD106367846EA0000060470
:1047E00001D580F409404000491C3029EDD3000A6E
:1047F00040F001008DF80500A8688168FF20884717
:10480000A8680621C268684690470027A8688168A2
:10481000FF2088470646FF2802D17F1C082FF5D3CA
:104820004CB1277805E0A8688168FF20884704F824
:10483000010B7F1EF7D2F0B2BDE8FC812DE9F041FB
:1048400011250F4616461C46012A00D9122521784B
:10485000042900D24002014600222846FFF79EFFAD
:1048600010BB1CE046F2A815A0688168FF208847AD
:10487000FE2802D06D1EF7D116E0ADB1A0684FF44E
:104880000071026938469047A0688168FF20884718
:10489000A0688168FF20884707F50077761E002E04
:1048A000E0D10120BDE8F0810020FBE77FB50446A0
:1048B00080688169002088472346102269460A20C3
:1048C00000F06CF80546A06881690120884775B141
:1048D0002078012868460CD009300168C07809BAF0
:1048E00021F0FF0101430120616004B070BD002090
:1048F000FBE70A30F1E77FB5044688680D46816919
:10490000002088472B4610226946092000F046F80F
:104910000646A868816901208847B6B19DF8050060
:10492000012100F00F0001FA00F0A080BDF80C009A
:1049300040BAC0F383108140E1809DF800008009F7
:1049400006D0012819D0022802D0002004B070BD82
:104950009DF806009DF80710000440EA01209DF82C
:1049600008100843BDF80910C0F38B1049BAC1F311
:10497000C211401C891C88400DE09DF807009DF87D
:104980000810000440EA01209DF8091008430004C3
:10499000800900F5806020600120D7E72DE9F04113
:1049A00017460E4600221C461146FFF7F7FED8B9FF
:1049B00046F2A815A0688168FF208847FE2802D02B
:1049C0006D1EF7D110E07DB1A0683946026930460E
:1049D0009047A0688168FF208847A0688168FF2011
:1049E00088470120BDE8F0810020FBE72DE9F04178
:1049F0001826884615461C46012A00D91926217812
:104A0000042900D24002014600223046FFF7C6FECC
:104A100038BBFE27012D29D9FC2727E0A068816833
:104A200038468847A0684FF40071C26840469047F6
:104A3000A0688168FF208847A0688168FF208847B8
:104A4000A0688168FF20884700F00F00052812D178
:104A50000A4EA0688168FF208847FF2802D0761E92
:104A6000F7D108E03EB108F500786D1E002DD5D1D4
:104A70000120BDE8F0810020FBE7000020A1070035
:104A800070B50446C0680D46164610B194F864101F
:104A900029B129462046BDE8704000F049B894F895
:104AA000652082B1A16DA9420DD80A44AA420AD953
:104AB000206E691A00EB41214FF40072E06DFBF7A4
:104AC000CAFC656517E0B04200D206466068E16D39
:104AD0003246836828469847012806D04FF0FF30B9
:104AE0006065002084F8650070BD65656D1C761EEC
:104AF000A56584F86560012070BD70B50E4604465A
:104B0000C58A016A0069FFF7C5F900EB1511206934
:104B100000F00EF800280AD0206905F00F012022CD
:104B2000C06D00EB41113046FBF7DAFC012070BD8F
:104B300070B50446406D0D46A84201D1012070BDFC
:104B4000A06DA8420ED894F864100144A94209D976
:104B5000216E281A01EB40214FF40072E06DFBF743
:104B60007AFC0CE06068E16D012283682846984772
:104B7000012804D04FF0FF306065002070BD6565EE
:104B8000DCE700002DE9FF4F97B00C46012A19D051
:104B90000020129001204FF0000ACDE90E0A039088
:104BA000E06900901798FBF737FC04900020109004
:104BB00021698346E06908671798FEF7F8F801282D
:104BC00002D009E00120E4E704980D210C30B0FB8D
:104BD000F1F0401CC0B20E9009A91798FEF7F3FB44
:104BE000129808B1092000E00D2007902069009973
:104BF000FFF750F981460026206990F87B1019B123
:104C0000B6F5007F13D01BE0818FB14218D1016C43
:104C1000009A0026914200D90091694600F0C2F83E
:104C2000002805D020690099FFF76CFB18B100201F
:104C30001BB0BDE8F08F20690099FEF769F9814645
:104C400009EB16112069FFF773FF0028F0D02069E7
:104C500006F00F01C06D00EB411528780028E7D061
:104C6000E5286FD095F80B80B8F10F0F03D05FEAFD
:104C7000087067D431E0410609D500991091697B2D
:104C80000F9120F04001491CC9B2B34603916A7BE1
:104C90000F998A4256D100F01F00401E00EB8001A0
:104CA00001EBC0001799DFF8F8C00A18002000BF18
:104CB0001CF80010135C695C81EA030737F02007D9
:104CC00008D103B911B1401C0D28F1D30AF101003C
:104CD00000F0FF0AB8F10F0F34D0039801280ED06E
:104CE00029D9A0F1010050451BD12846FFF726FB2A
:104CF0000F99884215D10AF10100C0B21AE00E984E
:104D0000012803D007990498884214D20098109083
:104D1000B34609A9284600F097F878B14FF0010A88
:104D200012E00E98012806D109A9284600F08CF857
:104D300008B1039882460398504505D001204FF0F2
:104D4000000A0390761C57E7E87AC0F30011129826
:104D50008142F3D11A9808BBE87A207505F11A0050
:104D6000FFF756FA074605F11400FFF751FA07EB73
:104D70000040E061E682009820622169109848674F
:104D800021690020A1F878B0216981F87AA0E0605B
:104D900005F11C00FFF741FA6060A060012047E7C1
:104DA000D05400082DE9F0410D680E46044629460E
:104DB000FFF786F8804601462046FDF7AFFF002842
:104DC00007D0207F012806D0022825D0032828D02C
:104DD0000020BDE8F08105EB4500C0F34800B0F5C8
:104DE000FF7F04D8E16C0844FFF712FA0DE0E06C95
:104DF00008F1010190F8FF712046FDF78FFF0028B0
:104E0000E7D0E06C007847EA0020E90701D000090C
:104E10000BE0C0F30B0008E0E16C2806C00D085A57
:104E200003E06806E16CC00D085830600120D0E74F
:104E30000A0A4270017070470A0EC2700A0C827032
:104E40000A0A42700170704730B50022835C8C5CA6
:104E500083EA040535F0200501D0002030BD04B9F7
:104E600013B1521C0B2AF1D3012030BDAFF30080E7
:104E70002048816941F0010181611F494A6822F09F
:104E800004024A60816941F0040181611B490A689A
:104E900022F47F620A600A6842F0B0020A600A687F
:104EA00042F480620A60816941F480418161144961
:104EB00040F2712008800022081D0280011D0A8036
:104EC000038803800B1D1A80028842F00C020280C6
:104ED000028842F0200202800A880A80198819801C
:104EE0004FF0E0222021C2F80411018841F4005162
:104EF000018070470010024000000140040801409A
:104F0000083801402DE9F0470026012704460D46E8
:104F100002297DD379E0E06EA84200D9E5662946F2
:104F20002046FEF7CDFF814601462046FDF7F6FEFE
:104F300000287AD0207F012804D0022846D00328F8
:104F400072D14DE005EB4500C0F34808B8F5FF7F8E
:104F500016D8E16C01EB0800FFF75AF9E90703D016
:104F600000F00F01000903E000F47041C0F30B00F2
:104F7000E26C814602EB080089B2FFF759FF3BE083
:104F8000E06CEA0790F8FF11884604D001F00F01A9
:104F900080F8FF1101E080F8FF6184F8507009F19A
:104FA00001012046FDF7BAFE00283ED0E06CEB0779
:104FB000017848EA012202D00670100904E001F0ED
:104FC000F0010170C2F30B00814615E02806C50D03
:104FD000E06C2844FFF71CF98146E06C46530BE077
:104FE0006806C50DE06C2844FFF717F98146E06CB0
:104FF0004651A06E401CA06684F850704946204679
:10500000FFF780F9012812D04D46206B801C02E08A
:1050100013E00AE008E0A8423FF67DAF00212046F9
:10502000FDF77CFE002800D00020BDE8F0870021BD
:105030002046FDF773FE0028F7D00120F5E70000B9
:1050400010B545F25550FCF7E9FD0320FCF780FD53
:1050500005480068C0F38F10FCF7B2FDFCF770FD47
:10506000BDE81040FCF764BD1800002010B50446F0
:1050700000F005F808B1204610BD582010BDA0F181
:105080002001012917D9C91E062914D92D2812D0AB
:105090002E2810D00D3909290DD940280BD01139EF
:1050A000192908D91D391D2905D97D2803D07E2845
:1050B00001D000207047012070472DE9F0410D46D6
:1050C000C1680446E1B100261DB3656594F864200B
:1050D0004FF400779AB3A06D8318AB4227D18A4270
:1050E00025D204F15C046068216800EB42203A4656
:1050F000FBF7B1F9207A401C20720120BDE8F08155
:10510000002DFAD00022294600F050F90028F5D0F1
:10511000F3E794F86420002AEFD06368216EA06D55
:10512000DB6898470028E9D084F86460E5E76368A5
:10513000216EDB6898470028E0D084F8646004F1B1
:1051400058043A46D4E90110FBF785F9012025609F
:1051500020736673D1E700002DE9F0410446C7696A
:10516000FFF73EF80646FEF77FFE804620694FF4C3
:105170000071C06DFBF7E6F920690B2234A1C56D03
:105180002846FBF7ADF91020E872314605F10E0014
:10519000FFF74EFE414605F11000FFF749FE41467C
:1051A00005F11200FFF744FE314605F11600FFF746
:1051B0003FFE414605F11800FFF73AFE05F12000D9
:1051C000202229460646FBF78BF9E069010C05F120
:1051D0001400FFF72DFEE06981B205F11A00FFF718
:1051E00027FE2E2070702069006F010C06F114005C
:1051F000FFF71EFE2069006F81B206F11A00FFF76B
:1052000017FE2169E069086739462069FDF780FECD
:10521000064601223146206900F0C8F8002814D063
:1052200020694021C06DFBF78DF9012506E0711959
:10523000002200F0BBF8002807D06D1C2069817F98
:10524000A942F4D80220E0820120BDE8F0810000EC
:105250002E20202020202020202020002DE9F04793
:10526000154604460E46FEF72BFE814601462046B3
:10527000FDF754FD002809D0207F4FF001080128D8
:1052800006D0022844D0032848D00020BDE8F0878B
:1052900006EB4600C0F34807C5F30B05B7F5FF7FE3
:1052A00013D8E06C3844FEF7B3FFF10702D065F382
:1052B0001F1002E000F470402843E16CCA1981B26B
:1052C0004FEA0200FFF7B4FD38E0F007E06C06D0CB
:1052D00090F8FF1165F31F1180F8FF1101E080F8CD
:1052E000FF5184F8508009F101012046FDF716FDB9
:1052F0000028CBD0F00703D0E16C280908701DE02E
:10530000E06C017801F0F00141EA1521017015E02F
:10531000E16C300601EBD050A9B2D3E77006C60DA0
:10532000E06C3044FEF779FF18B9A06E08B1401E5A
:10533000A066E06C29463044FFF77EFD84F850807B
:105340000120A3E710B50446C06D4FF40071FBF7D0
:10535000F9F81449E06DFFF76FFDE06D124900F5B3
:10536000F270FFF769FDE06DA16E00F5F470FFF7D4
:1053700063FDE06DE16E00F5F670FFF75DFDE06D39
:105380004AF6552100F5FF70FFF752FDB4F84410BE
:10539000A06901442046FFF790FE002800D00120BC
:1053A00010BD0000525261417272416170B50446F5
:1053B0000D464069E16D08B1012A09D060680122FB
:1053C000C36828469847002801D00120656570BD54
:1053D0000B4600222946FEF7DBFCF4E7080001003B
:1053E000614400088544000879440008914400089D
:1053F0006D44000855440008940500204D30000D10
:10540000535444494E005354444F5554005354444C
:10541000455252007D1C00087927000845220008EB
:1054200059220008A11F0008CD1100088922000898
:1054300039120008011000000200100000024100B3
:1054400001100000020010000004410001200000D3
:1054500002002000000441000120000004002000A0
:105460000004410002100000080020000004410078
:105470000210040010002000000481000220080037
:1054800020002000000481000220100040002000C5
:10549000000401010240200000012000000201017F
:1054A00003404000000120000004010103404000CF
:1054B00000013F000004010103404000FF003F00E5
:1054C0000004010103404000FF003F00000401010F
:1054D00001030507090E10121416181C1E00000007
:1054E0000055000800000020300000006C0100089A
:1054F0003055000830000020500E000088010008E0
:10550000000000000000000066775C6669726D773D
:105510006172652E68657800409C00000000000004
:10552000000000000000000000000000000000007B
:0400000508000131BD
:00000001FF
