:020000040802F0
:1000000070B6002081080208C36A0208815C0208F9
:10001000C16A020809450208B19802080000000000
:100020000000000000000000000000009907020826
:10003000914602080000000029080208750802081D
:100040009B0802089B0802089B080208FD72020830
:100050009B0802089B080208954602089B080208B4
:100060009B0802089B0802089B0802089B080208DC
:100070009B0802089B0802089B0802089B080208CC
:100080009B0802089B0802089B0802089B080208BC
:100090009B0802089B0802089B080208D146020838
:1000A0009B0802089B0802089B0802089B0802089C
:1000B00025820208858202089B0802089B08020824
:1000C0009B0802089B0802089B0802089B0802087C
:1000D0009B08020881900208A9900208F990020882
:1000E0009B0802089B0802089B0802089B0802085C
:1000F0009B0802089B0802089B0802089B0802084C
:100100009B0802089B0802089B0802089B0802083B
:1001100031900208599002089B0802089B080208C7
:100120009B0802089B0802089B0802089B0802081B
:1001300000F002F800F081F80AA090E8000C824478
:100140008344AAF10107DA4501D100F076F8AFF255
:10015000090EBAE80F0013F0010F18BFFB1A43F0A5
:1001600001031847DCEA0100FCEA01000A444FF0F1
:10017000000C10F8013B13F0070408BF10F8014B06
:100180001D1108BF10F8015B641E05D010F8016B4B
:10019000641E01F8016BF9D113F0080F1EBF10F8AF
:1001A000014BAD1C0C1B09D16D1E58BF01F801CBD2
:1001B000FAD505E014F8016B01F8016B6D1EF9D555
:1001C0009142D6D37047000000230024002500266A
:1001D000103A28BF78C1FBD8520728BF30C148BFAA
:1001E0000B60704766291DF0F481642900F0E884F3
:1001F000752900F0E584782900F01E85732901F047
:10020000F685002070471FB59DE8030001F010FB44
:1002100002F032F90400002000211CF06BF9401CB0
:100220006060002000211CF04FF9E06001F0D8FF71
:100230001FBD10B502F04CF810BD02F033FE1146A0
:10024000FFF7E1FF11F042F802F08EFF03B4FFF771
:10025000F0FF03BC0AF0A3FA2DE9F0474FF00006C7
:10026000089A31F9027B31F9028BB0F90040B0F9FC
:10027000025004FB07F305FB083331F9027BB0F9A8
:10028000044031F9028BB0F9065004FB073305FB3B
:10029000083331F9027BB0F9084031F9028BB0F92B
:1002A0000A5004FB073305FB083331F9027BB0F930
:1002B0000C4031F9028BB0F90E5004FB073305FBFB
:1002C000083331F9027BB0F9104031F9028BB0F9F3
:1002D000125004FB073305FB083352F8044BC3EB01
:1002E0006403012EAEBF73459E46B246761C202E97
:1002F000B7DB0A9BC3F800A00B9BC3F800E0BDE886
:10030000F08700002DE9F05FDDF828C0DDF830E06F
:10031000DEF8004030F902AB04F580590AEB693988
:1003200009F30F0B23F802BBCBF1000B0FFA8BFB89
:10033000B1F90070DEF8045007FB0A55B2F90080ED
:1003400008FB0B54CEF80040B1F90270DEF808400B
:1003500007FB0A44B2F9028008FB0B45CEF80450B3
:10036000B1F90470DEF80C5007FB0A55B2F90480AD
:1003700008FB0B54CEF80840B1F90670DEF81040C7
:1003800007FB0A44B2F9068008FB0B45CEF80C5077
:10039000B1F90870DEF8145007FB0A55B2F908806D
:1003A00008FB0B54CEF81040B1F90A70DEF8184083
:1003B00007FB0A44B2F90A8008FB0B45CEF814503B
:1003C000B1F90C70DEF81C5007FB0A55B2F90C802D
:1003D00008FB0B54CEF81840B1F90E70DEF820403F
:1003E00007FB0A44B2F90E8008FB0B45CEF81C50FF
:1003F000B1F91070DEF8245007FB0A55B2F91080ED
:1004000008FB0B54CEF82040B1F9127007FB0AF735
:10041000B2F9128008FB0BF8B844CEF82480BCF186
:10042000010C7FF475AFBDE8F09F2DE9F041DDF8D8
:100430001CE0DEF8005030F9028B05F5805708EB20
:10044000673808F30F0622F8026BC6F1000636B2D1
:10045000B1F90070DEF8044007FB0645CEF8005005
:10046000B1F90270DEF8085007FB0654CEF80440DC
:10047000B1F90470DEF80C4007FB0645CEF80850D1
:10048000B1F90670DEF8105007FB0654CEF80C40A8
:10049000B1F90870DEF8144007FB0645CEF810509D
:1004A000B1F90A70DEF8185007FB0654CEF8144074
:1004B000B1F90C70DEF81C4007FB0645CEF8185069
:1004C000B1F90E70DEF8205007FB0654CEF81C4040
:1004D000B1F91070DEF8244007FB0645CEF8205035
:1004E000B1F9127007FB06F7CEF824705B1EA0D19D
:1004F000BDE8F0812DE9F0414FF000064FF0000318
:1005000030F9024B31F9027B04FB073330F9025B0F
:1005100031F9028B05FB083330F9024B31F9027BCC
:1005200004FB073330F9025B31F9028B05FB08331A
:1005300006EBA3164FF0000330F9024B31F9027BB2
:1005400004FB073330F9025B31F9028B05FB0833FA
:1005500030F9024B31F9027B04FB073330F9025BBF
:1005600031F9028B05FB083306EBA3164FF00003AD
:1005700030F9024B31F9027B04FB073330F9025B9F
:1005800031F9028B05FB083330F9024B31F9027B5C
:1005900004FB073330F9025B31F9028B05FB0833AA
:1005A00006EBA3164FF0000330F9024B31F9027B42
:1005B00004FB073330F9025B31F9028B05FB08338A
:1005C00030F9024B31F9027B04FB073330F9025B4F
:1005D00031F9028B05FB083306EBA3164FF000033D
:1005E00030F9024B31F9027B04FB073330F9025B2F
:1005F00031F9028B05FB083330F9024B31F9027BEC
:1006000004FB073330F9025B31F9028B05FB083339
:1006100006EBA3164FF0000330F9024B31F9027BD1
:1006200004FB073330F9025B31F9028B05FB083319
:1006300030F9024B31F9027B04FB073330F9025BDE
:1006400031F9028B05FB083306EBA3164FF00003CC
:1006500030F9024B31F9027B04FB073330F9025BBE
:1006600031F9028B05FB083330F9024B31F9027B7B
:1006700004FB073330F9025B31F9028B05FB0833C9
:1006800006EBA3164FF0000330F9024B31F9027B61
:1006900004FB073330F9025B31F9028B05FB0833A9
:1006A00030F9024B31F9027B04FB073330F9025B6E
:1006B00031F9028B05FB083306EBA3164FF000035C
:1006C00030F9024B31F9027B04FB073330F9025B4E
:1006D00031F9028B05FB083330F9024B31F9027B0B
:1006E00004FB073330F9025B31F9028B05FB083359
:1006F00006EBA3164FF0000330F9024B31F9027BF1
:1007000004FB073330F9025B31F9028B05FB083338
:1007100030F9024B31F9027B04FB073330F9025BFD
:1007200031F9028B05FB083306EBA3163046BDE812
:10073000F081000080F309887047684680F30988DB
:1007400004480078C00714BF0220032080F31488F7
:1007500070470000D4D60308DFF818C0EFF3058314
:100760001B0618BF6047EFF31483DB0708BF604721
:1007700000DF70475F450308DFF818C0EFF305831B
:100780001B0618BF6047EFF31483DB0708BF604701
:1007900000DF7047C9470308EFF30980816931F82A
:1007A000021C31F47F4128D190E80F10E047EFF3AD
:1007B000098C1A4B93E80600914219D00CB44FF003
:1007C000010300291FBF81F821302CE9F00FC1F887
:1007D00024C014F065FB0CBC1A60D2F824C0BCE83D
:1007E000F00F92F821308CF309881BB192F82000A9
:1007F000CCF800006FF0020E704710B5084A12687E
:10080000914209D8074C54F8214090E80F10A047B6
:10081000EFF3098C8CE80F0010BD0000C40200202B
:10082000AC390208AC39020814F018FA134B93E8FB
:10083000060091421BD00CB44FF0000381F8213028
:10084000EFF3098C2CE9F00FC1F824C014F028FB59
:100850000CBC1A60D2F824C0BCE8F00F8CF30988F5
:1008600092F821301BB192F82030CCF800306FF0B4
:10087000020E704714F0CCFBD8E70000C402002041
:100880000948804709480047FEE7FEE7FEE7FEE724
:10089000FEE7FEE7FEE7FEE7FEE7FEE70448054960
:1008A000054A064B70470000217F0208310102080B
:1008B0007090002070B6002070B4002070B400204A
:1008C00000487047108F0020704770B5A0FB0140B2
:1008D000B4F1805170F1000024BF002070BD2046AB
:1008E00000F04CF805001CBF214600F0CAFE284667
:1008F00070BD0B3020F0070070472DE9F04117461E
:100900000E460446FFF7F5FFA042054633D9002FF7
:100910001CBF06F10C0009F05FFE30467468F4B1AC
:100920002168A94217D305F1080291423CBF6168D2
:10093000416007D3626861194A602268521B0A60ED
:1009400041602560002F1CBF06F10C0009F06CFE11
:10095000201DBDE8F08120466468002CE0D12946C6
:10096000304600F051FF0028D7D1002F1CBF06F100
:100970000C0009F059FE0020BDE8F08110B50446D6
:1009800000F037FF01682046BDE810400122B4E7BF
:1009900070B516460D46041F002808BF70BD002E16
:1009A0001CBF05F10C0009F017FE2B465868002803
:1009B00018BFA04238BF0346F8D31968CA18A2422C
:1009C00018BF5C6003D122681C461144196021687D
:1009D0000A19824218BF606004D1426862600068F0
:1009E00008442060002E1CBF05F10C0009F01CFE1D
:1009F00070BD10B5044600F0FCFE01682046BDE85D
:100A000010400122C4E70B3020F0070070472DE9A9
:100A1000F0410F460546041F00F0EBFE0668F7B1F3
:100A2000384615B3FFF7EFFFB84205463CBF00203C
:100A3000BDE8F08106F10C0009F0CEFD2268AA4263
:100A400038BF314615D3511B082931D36019002214
:100A500040F8041B31462560FFF79AFF28E028463E
:100A6000FFF7C7FF0020BDE8F081BDE8F041FFF7C8
:100A700085BF4868002818BFA04238BF0146F8D398
:100A8000131983421BD103681A44954217D8531B8C
:100A9000082B0AD34368621953602368006818441E
:100AA000401B106025604A6002E022604068486098
:100AB00006F10C0009F0B8FD201DBDE8F081002210
:100AC0003146281FFFF719FF05000AD02068211DB5
:100AD000021F284600F09BFD00223146201DFFF733
:100AE00057FF06F10C0009F09FFD2846BDE8F08194
:100AF0000FB41CB5084B06AA7B44694600900598C4
:100B000001F04BF904460020694601F059F92046EE
:100B10001CBC5DF814FB0000C512000070B5044653
:100B200085690068C10601D5302600E02026C0078F
:100B300008D070BDD4E9012130469047206A00F109
:100B4000010020626D1EF5D570BD70B50446856943
:100B50000078C00708D170BDD4E90121202090475A
:100B6000206A00F1010020626D1EF5D570BD70B5E0
:100B70000C460546012A05D02878800600D5EA698A
:100B8000002302E0012305E05B1C934202D2E05CFB
:100B90000028F9D1A869E618C01AA861286A184483
:100BA00028622846FFF7BAFF04E0D5E9012114F8CE
:100BB000010B9047B442F8D32846FFF7C6FF70BD3B
:100BC0002DE9F0410646002410687529314616A526
:100BD00011D0AFF30080002803DAC0F1000013A5A4
:100BE00007E031688A0701D511A502E0490704D55D
:100BF00010A5012401E0AFF3008000210A2306F1D3
:100C0000240707E0B0FBF3F203FB12003030785406
:100C10001046491C0028F5D123462A463046BDE837
:100C2000F04100F048BE0000000000002D00000070
:100C30002B0000002000000070B504460D46214640
:100C40001068AFF300802188090502D5104A7A4464
:100C500002E00F4A7A440E32002104F1240307E037
:100C600000F00F064FEA1010965D5E5401F101018D
:100C70000028F5D103462078000704D5702D02D056
:100C800009B1113202232046BDE8704000F013BEC6
:100C90009FDC01002DE9F05F894604464FF0000A11
:100CA000DFF828B1FB44C0F820A02046E16888475F
:100CB00000287CD0252806D0D4E901219047206A5D
:100CC000401C2062F1E700255F462046E168884726
:100CD0002028064608DB312E06D207EB060010F866
:100CE000200C08B10543F0E7A80701D525F004055D
:100CF000C4F81CA00027C4F818A02A2E09D030463A
:100D000009F062FC38B304EB8708303EC8F818607D
:100D100019E059F8041B204604EB87029161E16851
:100D20008847012F064618D1E069002820DA25F00F
:100D300020051DE0D8F8180000EB800006EB40000D
:100D40003038C8F818002046E1688847064609F0A0
:100D50003BFC0028EED1012F0AD02E2E08D12046D0
:100D6000E16888477F1C0646022F45F02005C4DB5A
:100D7000A069002803DA404245F00105A061E807B8
:100D800001D025F0100596B1A6F14100192802D82E
:100D9000203645F400654A463146204625604D46DA
:100DA000FFF720FA60B1012807D0ED1D00E009E04F
:100DB00025F0070000F1080977E705F1040974E759
:100DC000304679E7206ABDE8F09F000071DC010041
:100DD0000FB400B58DB010A9099000910B904FF0A1
:100DE000FF300A9000200C90064878440690064890
:100DF00078446A4607900F9909A801F011F80DB0E0
:100E00005DF814FB531000006B1000002DE9FF5F2C
:100E10001D464FF0FF3B91464FF000085F46D5E975
:100E20000146A96901987F1C8847296A824688473C
:100E30000028F6D11AF101000CD0002E24F4C06471
:100E400019DD600614D5BAF12B0F09D0BAF12D0FB8
:100E50000ED103E0584604B0BDE8F09F44F480642E
:100E6000A96901987F1C8847761E8246002E02DD04
:100E7000BAF1300F03D0B9F1000F26D032E0A969E2
:100E8000761E01987F1C44F400748847002E824629
:100E900005DDBAF1780F06D0BAF1580F03D0B9F1D9
:100EA000000F10D01EE0B9F1000F02D0B9F1100F01
:100EB00018D1A969761E01987F1C24F40074884714
:100EC0008246102002E0082000E00A20814609E066
:100ED000A96908FB0908761E01987F1C44F4007478
:100EE00088478246002E05DD4946504600F083FFC4
:100EF0000028EDDAE96901988847A00502D46FF06F
:100F00000100A8E7E00727D1600614D5600502D5E7
:100F1000C8F1000000E04046296801F104022A609F
:100F20000968220501D5087016E0220701D508805E
:100F300012E0086010E0286800F1040129600068F0
:100F4000210502D580F8008006E0210702D5A0F82F
:100F5000008001E0C0F8008038467CE770B50646A6
:100F600000F04CFC0468054630460A22002100F0DF
:100F700087FF2C6070BD00002DE9F0410446164645
:100F80000D464769007B80072ED0384609F00FFCDC
:100F900050BB3EB3012E02D0022E25D104E02046E4
:100FA00000F066F805441DE0384609F0F9FBE168F9
:100FB000002841F01001E16005DA204601F088F8D0
:100FC0000120BDE8F081C9030BD56268E16A914256
:100FD00000D81146A26911442269891A814200DDB4
:100FE00008460544002D01DA0220EAE7E16A60685C
:100FF000E268814206D29103E06203D522F4003117
:1010000041F01002A6690027AE4213DCE16A81427A
:1010100001D90B4600E0034603EB060C2369ACEB59
:10102000030CAC4506DD814201D98C4600E08446C4
:101030009C4505D1A760276042F02000A5620DE025
:10104000AD1BE669AE1B8142A66000D90846C01AF6
:10105000281A20605819606022F0200003490840D7
:10106000E060002084F84870ABE70000BFCFD7FFF6
:1010700010B50146C268900703D0900607D5886A6C
:101080000BE000F0BBFB01210160881E10BD8B69E5
:10109000486818440B69A0EB030091F8483023B16D
:1010A00091F84910A0EB010010BD1103FCD50028F8
:1010B000FADD401E10BD10B504460022114600F0B6
:1010C00067F82046BDE8104001F07AB82DE9F047F6
:1010D00004464FF000094FF0FF37C568D4E9048695
:1010E000A80707D0204601F027F8304609F050FB4A
:1010F000002802DA3846BDE8F087280502D54046C8
:10110000FFF777FC4C21204600F0DDFA206D20F03F
:10111000010020654846EEE770B50C46064601F131
:101120004C05284609F058FA214630460EF010F9D1
:101130000446284609F078FA204670BD70B504468A
:1011400000F14C05284609F047FA2046FFF790FFCA
:101150000446284609F068FA204670BD70B5054679
:101160000A4E304609F038FA05F14C04204609F0E1
:1011700033FA2846FFF7AAFF0546204609F054FA3D
:10118000304609F051FA284670BD0000580300208F
:101190002DE9F04116460F46054600F14C04204665
:1011A00009F01AFA324639462846FFF7E5FE0546A9
:1011B000204609F039FA2846BDE8F08170B50446AA
:1011C00000F14C05284609F007FA207B00F04004A6
:1011D000284609F029FA204670BD00002DE9F047A5
:1011E00016468846814602F14C07384609F0F4F964
:1011F0003046FFF76BFF18F8010B61280AD0722800
:1012000002D077283FD102E00125002405E0022525
:10121000042402E0082448F2020518F8010B2B28E8
:1012200006D0622809D018F8010C74280AD00BE007
:1012300045F0030544F00204EFE745F0040544F0EF
:101240000104EAE744F010044846214609F0B6FAE2
:10125000411C18D00021316171604FF40071F560BC
:10126000F1617061200704D5304602220021FFF7AA
:1012700083FE306D40F001003065384609F0D4F946
:101280003046BDE8F0870026F7E72DE9F041154626
:101290000E460746204C204609F09EF92A46314664
:1012A0003846FFF79BFF0546204609F0BDF9284662
:1012B000BDE8F0812DE9F0410E468046164D2846E6
:1012C00009F08AF9154C206DC10704D0410804D0FB
:1012D00020F00104F7E7224612E05420FFF74EFB0E
:1012E000070017D0206D47F0010108435421206505
:1012F000384600F0E8F907F14C0009F07DF93A466C
:1013000031464046FFF76AFF0446284609F08CF94B
:101310002046CDE70024F8E758030020708F002016
:10132000014A01F041B800005C03002010B5431EE3
:1013300013F8014F002CFBD105E011F8014B002CF4
:1013400003F8014B03D0521EF7D20021197010BDD3
:1013500030B505460B462A4613F8014B12F8010B2F
:1013600008B1A042F8D01CB1002802D06D1CF1E7F2
:10137000284630BD40EA010310B59B070FD1042A6F
:101380000DD310C808C9121F9C42F8D020BA19BA50
:10139000884201D9012010BD4FF0FF3010BD1AB1B5
:1013A000D30703D0521C07E0002010BD10F8013B0A
:1013B00011F8014B1B1B07D110F8013B11F8014B31
:1013C0001B1B01D1921EF1D1184610BD40EA01034A
:1013D000024630B59B0710D14FF0013400E008C23F
:1013E00008C91D1B9D4315EAC41FF8D013F0FF0167
:1013F00002F8011B0DD01B0AF8E711F8013B002B86
:1014000002F8013B05D011F8013B002B02F8013B2B
:10141000F3D130BD10B5431C02E010F8011B71B1CF
:101420008107FAD14FF0013202C88C1A8C4314EABA
:10143000C211F9D0C01A0A0603D0C01E10BDC01ACE
:1014400010BD0A0401D0801E10BD0902FCD0401E50
:1014500010BD40EA010370B59B072ED14FF0013655
:10146000042A2AD308C810C9121F9D1B9D4315EAE0
:10147000C61517D0D8B2E1B2401A50EA056110D1B2
:1014800098B2A1B2401A50EA05410AD123F07F4038
:1014900024F07F41401A50EA052102D1180EA0EB3A
:1014A000146070BDA342DBD018BA21BA884201D9BA
:1014B000012070BD4FF0FF3070BD0AB9002070BD33
:1014C00010F8013B11F8014B63B1A3420AD1521E3F
:1014D00008D010F8013B11F8014B1BB1A34201D118
:1014E000521EEDD1181B70BD421E12F8013F002B99
:1014F000FBD111F8013B002B02F8013BF9D17047F9
:10150000032A40F2308010F0030C00F0158011F82F
:10151000013BBCF1020F624498BF11F801CB00F807
:10152000013B38BF11F8013BA2F1040298BF00F85B
:1015300001CB38BF00F8013B11F0030300F06780D6
:10154000083AC0F0088051F8043B083A51F804CB3F
:10155000A0E80810F5E7121D5CBF51F8043B40F805
:10156000043BAFF30080D20724BF11F8013B11F810
:1015700001CB48BF11F8012B24BF00F8013B00F854
:1015800001CB48BF00F8012B7047431A28BF9A428D
:101590007FF6B6AF032A1044114440F2268010F0C3
:1015A000030F1EBF11F8013D521E00F8013D10F05F
:1015B000030F7FF4F6AF11F0030300F02A87083A17
:1015C000C0F00B8051F8043D083A51F804CD40F8C2
:1015D000043D40F804CDFFF7F3BF121D5CBF51F886
:1015E000043D40F8043DAFF30080D20724BF11F85A
:1015F000013D11F801CD48BF11F8012C24BF00F8BE
:10160000013D00F801CD48BF00F8012C704710B52E
:10161000203AC0F00B80B1E81850203AA0E81850EA
:10162000B1E81850A0E81850BFF4F5AF5FEA027CAB
:1016300024BFB1E81850A0E8185044BF18C918C01A
:10164000BDE810405FEA827C24BF51F8043B40F8BB
:10165000043B08BF7047D20728BF31F8023B48BFA0
:1016600011F8012B28BF20F8023B48BF00F8012BDE
:10167000704702F0FF0343EA032242EA024200F00D
:1016800002B84FF000020429C0F0128010F0030CE1
:1016900000F01B80CCF1040CBCF1020F18BF00F865
:1016A000012BA8BF20F8022BA1EB0C0100F00DB814
:1016B0005FEAC17C24BF00F8012B00F8012B48BF72
:1016C00000F8012B70474FF0000200B51346944616
:1016D0009646203922BFA0E80C50A0E80C50B1F18A
:1016E0002001BFF4F7AF090728BFA0E80C5048BF9E
:1016F0000CC05DF804EB890028BF40F8042B08BF3C
:10170000704748BF20F8022B11F0804F18BF00F837
:10171000012B704710B5044610F0030F08BF11F0FD
:10172000030F40F015804FF0013E121FC0F20E80F3
:1017300051F8043BA3EB0E0C2CEA030C1CEACE1C64
:1017400008BF40F8043BF0D0A1F1040102F104020B
:10175000521E08DB11F8013B002B00F8013BF7D1CA
:101760001146FFF78EFF204610BD00004FF0013CF0
:1017700050F8042B51F8043B9A4221D1A2EB0C0300
:10178000934313EACC1317D150F8042B51F8043BC0
:101790009A4215D1A2EB0C03934313EACC130BD15D
:1017A00050F8042B51F8043B9A4209D1A2EB0C03E8
:1017B000934313EACC13DBD04FF00000704700BF17
:1017C000D01A01BAB1FA81F101F0180122FA01F040
:1017D000CB40C1F12001DBB2C0B2C01A2CFA01F338
:1017E000D11A914311EAC311E6D17047704770478F
:1017F000704710B5FFF764F8083010BD08F0A0BEC0
:10180000704770477047704738B504460A46002055
:101810006946AFF30080002808BF38BD0246009932
:10182000204600F02EFE012038BD012001F015BB3E
:10183000F8B5AFF30080054600200C46102000BF2D
:101840000646A819A0420DD9324669460020AFF3DA
:101850000080070008BF01F000FB0098A04218BFFD
:101860000546C419FFF7C5FF05600746F01D20F0C7
:1018700007004619284600F00AF8B44208BFF8BD30
:10188000A21B31463868BDE8F84000F0FABD0021DF
:101890000160C0E901100C3008F0AEBE10207047A6
:1018A00010B5FFF7ABFF006810BD10B50446FFF799
:1018B000A5FF046010BD2DE9F0470D4699469246FC
:1018C000044600F124080168880604D5E06921F087
:1018D0001001216000E00120A84202DDA0EB050715
:1018E00000E00027A16907EB050202EB0900A1EB6C
:1018F0000000A0612078C00602D42046FFF70EF950
:10190000002608E0D4E901211AF806009047206A71
:10191000401C761C20624E45F4DB2078C0060AD5B8
:101920002046FFF7FBF806E0D4E90121302090477C
:10193000206A401C2062381EA7F10107F4DC07E092
:10194000D4E9012118F805009047206A401C206264
:10195000281EA5F10105F3DC2046FFF7F6F82078F4
:10196000000602D50220BDE8F0870120FBE77047A2
:101970002DE9FF4F0C461E464FF0FF378BB0D2E9E2
:101980000001DDF860800A908A46C1F30A5505B966
:101990003D46002108464FF00000BAF1000F00F468
:1019A000400005DA00EB80004FF4400101EA5000EE
:1019B0004FEA9059B9F1010F00DDB9460A9850EA93
:1019C0004A000ED044F61050A5F2FF3545432F14BF
:1019D000B8F1000F1ED07542291E1EDDC9F10002AC
:1019E0001CE0B8F1010F4FF0000001D0302103E0FE
:1019F000F24305E02154401CB042FBDB304600229C
:101A0000002121540B99C1F80880C1E900200FB0D2
:101A1000BDE8F08FBD1B6D1CDEE74A4600DA694267
:101A200006A800F0E3FF06AB07CB03AB07C35046A5
:101A30000A9901F000FC8DE80700A0F500501F385E
:101A400000900398002D09DD42F21F014A46084428
:101A500003A90390684601F05FFE08E0A0F500507E
:101A60004A461F3803A90390684601F069FE8DE8D5
:101A700007000004000C03D04FF0FF30410800E0E5
:101A80001046B8F1000F03D00022009215461FE067
:101A9000751E06D400F014FD02F1300262556D1E71
:101AA000F8D5B3460122084302D000227F1C04E08F
:101AB0002078302801D100227F1E002A099787D084
:101AC0001DE0112D07DA00F0FBFC303262556D1C71
:101AD00050EA0102F5D108430FD10021681E05E04C
:101AE000235C625C6354491C2254401E8142F7DB34
:101AF000AB46A81B401E099001E0009848B10020A9
:101B000004F80B000B98099AC0F80880C0E9002B74
:101B10007DE711264FF000085AE72DE9F04F88467F
:101B20000446D21D22F0070191B0D1E90001CDE9B0
:101B30000A0108F039F802460B98C00F01D02D2099
:101B400007E02068810701D52B2002E0202101EA6F
:101B5000C000032A099001D0072A05DB034641464D
:101B6000204600F0FBFC0FE12078800601D5E069FB
:101B700000E00620B8F1650F814606D0B8F1660F87
:101B800018D0B8F1670F72D132E00020B9F1110F0F
:101B9000009001DB112301E009F101030AAA01A968
:101BA0000CA8FFF7E5FEDDE90C70002609F1010540
:101BB000834648E001204B4600904FF000470AAAB8
:101BC00001A90CA8FFF7D4FEDDE90DB00C995D4624
:101BD000002618B909F1010001EB0005B9EB050079
:101BE00003D4C0F1FF3609F10105A5EB09002BE094
:101BF000B9F1010F01DA4FF001090020B9F1110F1D
:101C00000090484601DD112300E003460AAA01A91D
:101C10000CA8FFF7ADFEDDE90C704D4600268346AB
:101C2000207800070AD4AB4500DA5D4601A8012DF3
:101C300004DD411911F8011C302907D04F4502DAA3
:101C400017F1040F04DA0120824610E06D1EEEE762
:101C5000002F02DCED1B3E4403E0781CA84200DDAF
:101C60000546A7EB060000F1010A4FF00047207877
:101C7000000703D4AA4501DB4FF0FF3A0021B7F17A
:101C8000004F0DF143088DF8431023D002202B2381
:101C9000002F01DA7F422D234FF00A0C011EA0F124
:101CA000010000DC4FB197FBFCF10CFB11720F46F9
:101CB00002F1300208F8012DF0E7A8F101000370ED
:101CC0002188090501D5452100E06521A0F1010821
:101CD00000F8011C09980FA9A1EB080707F10707F5
:101CE00000B1012000EB050101EBEA70A169384465
:101CF000A1EB0000A0F10100A0612078C00602D491
:101D00002046FEF70BFF099830B1D4E90121904736
:101D1000206A00F1010020622078C00620D520460C
:101D2000FEF7FCFE1CE0002E04DBB34502DD01A83B
:101D3000805D00E03020D4E901219047206A761CC4
:101D4000401CBAF1010A20620AD100F095FBC0687C
:101D50000168405CD4E901219047206A401C206260
:101D6000281EA5F10105DEDC07E0D4E9012118F801
:101D7000010B9047206A401C2062381EA7F1010722
:101D8000F3DC2046FEF7E1FE022011B040E6000041
:101D900001694A1C02610878704700B58FB0CDE92F
:101DA00001310021059105497944CDE9031011461F
:101DB0006846FEF76FFF0FB000BD0000E5FFFFFFB4
:101DC0000A6802F8010B0A60704710B5436913B145
:101DD000AFF3008001E0FEF7CAFE012010BD1278CB
:101DE00000F124010A7000224A700122EDE7116817
:101DF0004FF0FF32E9E73A2800D2303820F02002D5
:101E0000412A01D3A2F13700884201D34FF0FF30BD
:101E1000704700000268114413780160184670474B
:101E2000D160054979445161044979441162002126
:101E30001161114600F0D2BBEDFFFFFF1D0700004E
:101E4000426842B1016811F8013B23B1521EC0E95A
:101E50000012184670470121C160881E7047426811
:101E60005AB1C368016843B983688B4205D0491EE3
:101E7000521CC0E90012002070474FF0FF3070473D
:101E80002DE9F04791460F4680460446002614F897
:101E9000015B2DB100F0E8FA0068405DC007F6D1A3
:101EA0002B2D02D02D2D18D0641E4A4639462046CF
:101EB00000F04CFD27B13968A14201D1C7F800807C
:101EC0004FF0020471050BD54042002803DDFFF7F7
:101ED00095FC0460A007BDE8F08746F48066E4E75F
:101EE0000028F8DAFFF78AFC04606FF00040F2E7A0
:101EF0002DE9F04705460C46C86820F4201040F450
:101F00008000C860800602D5084600F038F9E06815
:101F100041F282014FF0FF390140022903D02046EF
:101F200000F0D6F8B8E000F42041B1F5004F0FD131
:101F3000C00306D56168E06A884200D80846606040
:101F400006E02069E0626060606908F029FCA06139
:101F5000A0680022EEB200280DDAE1688B050AD4F1
:101F6000C043A06041F490302260E0606068411C92
:101F700061600670A9E0E0689046226040F400507D
:101F8000E060206968BB606908F011FC012704F17A
:101F90002405A0B1A08910F4407F08D0E069FEF7C5
:101FA000EDFC206118B1E06840F4006016E0E761E4
:101FB0002561E06820F4407040F480600EE0E06944
:101FC000FEF7DCFC00282061F1D0E06840F40060FE
:101FD00010F4407FE06002D140F48070E06020693E
:101FE0006060E06825696FF0010AC10521D561686C
:101FF000E06A884200D80846411B04D022462846A1
:1020000000F070F8F0BBE068010203D5E562C4E9B6
:10201000015858E005F10101E1626160E16940F4B5
:102020008030A1F10101C4E9021030462E70BDE8F4
:10203000F087010202D500F480320AE06068411C9A
:1020400061600670E0680A2E40F48030E06006D0DF
:102050000022E16A6068814203D90B4602E0012256
:10206000F7E70346A789A3EB05037F0503D4E769D8
:102070009F4200DDEAB1814200D801460F1A002BD1
:10208000E56200E008E0C4E9015807DD2246194690
:10209000284600F027F808B14846C8E74FB1A069C4
:1020A000E5626560A0EB0700A061E06840F0100009
:1020B000E060E068000208D56168A069E562491B3C
:1020C00008446560A0615046B1E73046AFE70000C4
:1020D000C16821F4001141F08001C16000218160DC
:1020E000016070472DE9F047814614460E464FF0D7
:1020F000FF383248D5685769054209D03846A1698A
:1021000008F090FB002811DB2C48C0430540E56037
:102110002B4632464946384608F08CFBA16920F030
:102120000042B21A11440028A16103D02046FFF7F3
:10213000CFFF4046BDE8F08770B504460569C06A28
:102140006168884200D80846E16821F42011E16006
:10215000C90312D5A84208D02246411B2846FFF7E2
:10216000C1FF10B14FF0FF3070BD0020E562C4E93F
:102170000150E06820F48030E060002070BD10B5B0
:102180000446C06820F02000E060A16AA06988428F
:102190000DD02046FFF7D0FFE06820F4405040F01B
:1021A0001000E060A06AA0612069E062606044F213
:1021B0004001E0688843E06010BD000010000200AC
:1021C00070B5044600F14C05284608F005FAE068B1
:1021D00044F2C0018843E060284608F025FA70BD4B
:1021E00010B565485421FFF76EFA64485421FFF793
:1021F0006AFA63485421FFF766FA62485E49624A08
:10220000624B01605D4810605D4A1A60431C0B65BB
:10221000511C01650120106557484C3008F0ECF95D
:1022200056484C3008F0E8F955484C3008F0E4F9CD
:10223000574808F0E1F958484F4A56A17844FFF74B
:1022400024F820B9544878440A3800F0FFFD544877
:102250004A4A52A17844FFF718F820B95048784408
:102260000A3800F0F3FD4F48454A4CA17844FFF787
:102270000CF820B94B4878440A3800F0E7FD4023B9
:102280003D48DC000021224600F042FD20B14248DA
:102290007844543800F0DAFD3848224640230021C3
:1022A00000F036FD20B13E487844543800F0CEFDB1
:1022B000334822461023002100F02AFD002806D0D2
:1022C00038487844BDE81040563800F0BFBD10BD16
:1022D0002B482DE9F041006D2D4E20F001043046D1
:1022E00008F07AF9244D4C35284608F075F9224853
:1022F000FEF7ECFE284608F097F92846AFF3008079
:102300001E4D4C35284608F067F91C48FEF7DEFEE6
:10231000284608F089F92846AFF30080184D4C355F
:10232000284608F059F91648FEF7D0FE284608F06E
:102330007BF92846AFF3008014E0206D20F0010502
:1023400004F14C00074608F047F92046FEF7BEFEB0
:10235000384608F069F93846AFF300802046FEF7AA
:1023600048FB2C46002CE8D1304608F05DF90848BF
:10237000AFF30080BDE8F081708F0020C48F002093
:1023800018900020600300206403002068030020F0
:102390005803002072000000BCB901007700000063
:1023A000AAB9010099B901002DE9F04115460E4680
:1023B000040002D12C6804B90BA4204600F064FD8F
:1023C0000444207870B127463146384600F04CFD71
:1023D0000444207810B1002004F8010B38462C602A
:1023E000BDE8F0810027F9E700000000431A28BF8C
:1023F0009A427FF60CA9104410F0030F11441EBF3F
:1024000011F8013D521E00F8013D10F0030F7FF45A
:10241000F6AF103AC0F00A8010B531E91850103A02
:1024200020E91850BFF4F9AFBDE81040530724BFAE
:1024300031E9081020E9081044BF51F8043D40F884
:10244000043D12F0030F08BF7047D20728BF31F8D0
:10245000023D48BF11F8012C28BF20F8023D48BFBB
:1024600000F8012C7047000010B500F005F8001DC1
:1024700010BD00BF81A0010010B5FEF721FA203089
:1024800010BD30B404468C464368002B18BF63452A
:1024900038BF1846F8D303681844604507D0C81CF5
:1024A00020F0070000F1040CACEB0100121A2146E9
:1024B000CCF8002030BC00220CF10400FEF768BA12
:1024C00030B5B0F10A024FEA900E71F100034EEA06
:1024D000817EB0EB0E0061EB91014FEA101E4EEAD7
:1024E000017E10EB0E0041EB11114FEA102E4EEA67
:1024F000016E10EB0E0041EB11214FEA104E4EEA37
:10250000014E10EB0E0041EB1141401841F100016A
:102510004FEAD00040EA41704FEAD10110EB80054C
:102520004FEA810444EA907444EB01046D1944EBD2
:102530000404521BA3414FF0000348BF0A3200D5E8
:1025400030BD401C41F1000130BD10B50446FFF71D
:102550008BFF0068005D00F0010010BD2DE9F04127
:102560001F46044603260168072A01F4006004DBC5
:1025700008B116A505E016A503E008B115A500E011
:1025800015A521F010002060A069C01EA0610FB148
:10259000401EA0612046FEF7C1FA4FB1D4E90121E7
:1025A00038469047206A401C2062C01C206206E02A
:1025B000206AFAE7D4E9012115F8010B9047761E4D
:1025C000F8D22046FEF7C1FABDE8F0814E414E0038
:1025D0006E616E00494E4600696E66002DE9F34F4C
:1025E0004FF0000A0C4656468DB001200C9001F1C8
:1025F0000C000B9062690B980121904705002DD0CB
:10260000252D2CD0216A8847C0B162690B98012121
:102610009047216A88470028F7D16269411E0B98CC
:10262000904700E0761CA1690D988847216A884789
:102630000028F7D1E1690D988847DBE7A1690D987B
:102640008847A842074601D1761CD3E7E1690D9877
:1026500088477F1C02D1BAF1000F6FD06AE162692E
:102660000B9800273D46394690472A2804D16269D5
:102670000B98012190470125DFF8CC8262690B9805
:1026800001219047A0F130010A290AD24745E5DC33
:1026900007EB870100EB4107303FDFD445F0100521
:1026A000ECE7E90601D46FF000476C280AD04C280B
:1026B00014D0682815D06A280DD074281CD07A2828
:1026C0001AD01DE062690B98012190476C2802D056
:1026D00045F0040514E045F002050DE045F0200545
:1026E0000AE062690B9801219047682802D045F002
:1026F000080505E045F4006562690B9801219047E3
:10270000C4E9015765283DD019DC582879D00CDC84
:10271000452837D004DC252826D041289ED131E039
:1027200046282FD0472899D12CE05B287FD06128FC
:1027300028D063287BD0642890D159E0F5E06F2839
:1027400047D008DC66281DD067281BD0692821D017
:102750006E2816D127E0702844D0732867D07528DA
:1027600046D078280DD14CE0A1690D9888472528DE
:1027700005463FF469AFE1690D9888476D1C3FF449
:102780006AAFD7E00D9923466A466FF00100AFF3B8
:102790000080C4E045F0400023464FF00002606036
:1027A000A80735D43DE0206800F1040121600068ED
:1027B000290501D506701DE7290701D5068019E70F
:1027C000A90704D54FEAE671C0E9006112E7066087
:1027D00010E745F0400023464FF008026060A8076C
:1027E00016D41EE040F60E0125EA0100606016E0F6
:1027F00045F0400023464FF00A026060A80707D466
:102800000FE045F040006060A80708D5234610227D
:102810000D996FF00100AFF3008080E007E0102217
:1028200023460D996FF00100FEF7F0FA77E04FF0C4
:10283000000963284F46C8464B46CB4602D05B286A
:1028400006D038E0E80601D40120A060012732E07C
:102850006269D4F80CB00B98012190475E2807D12B
:102860004FF0010949466269D4F80CB00B989047C3
:10287000216939B900210B4603AA42F82130491CCD
:102880000829FADBD8B3216949B308F10108626964
:102890000B98012190475D28F4D1B9F1000F09D0C0
:1028A000002003A951F82020D24341F82020401CE9
:1028B0000828F7DB03AB2069002820794FEA407035
:1028C0001ED05B462246CDF80080CDE901970D99D8
:1028D00000286FF0010020DAAFF300801FE0C1177D
:1028E00000EBD16203A9531122F01F0201EB830117
:1028F000821A0B680120904003430B60C7E719E080
:102900000D99224600286FF00100009702DAAFF31C
:10291000008004E0AFF3008001E0AFF30080002806
:102920000ADA401C06D10C9820B14FF0FF300FB0EE
:10293000BDE8F08F5046FAE7E90701D10AF1010A34
:10294000064400200C9055E6CCCCCC0C2DE9F05F71
:10295000824615468B4600270AF10104B9460078E5
:10296000302801D09DB113E014F8010B012778281D
:1029700003D0582801D045B10AE00DB1102D07D180
:10298000002714F8010B102502E0082500E00A25B5
:102990000026B0460EE005FB080005FB06F1012706
:1029A0001FFA80F801EB1046B6F5803F00D3B94618
:1029B00014F8010B2946FFF71EFA0028EBDABBF1E9
:1029C000000F05D00FB1641E00E05446CBF8004064
:1029D000B9F1000F06D0FEF711FF02210160C81EF9
:1029E000BDE8F09F48EA0640FAE700002DE9F0470D
:1029F000814616468AB035487844D0E9002380687D
:102A00000092CDE90130314878440C38D0E90223F6
:102A1000006903924FF03702CDE9043041F69B3054
:102A2000014491FBF2F0A0F1800502FB10141B3C65
:102A300002D56442012000E00020DFF890A080462B
:102A40000027FA44AAF1C60A0DE0E00709D0324691
:102A5000684607EB47010AEB810100F071FE8DE843
:102A6000070064107F1C002CEFD1184F7F44B43F47
:102A700017E0E80713D007EB04100DF1180A90E8EF
:102A80000E00AAE80E00C068F04201D19819089023
:102A9000324606A903A800F053FE03AB07C36D102E
:102AA000641C002DE5D132466946B8F1000F03A839
:102AB00002D000F031FE01E000F042FEC9E9000161
:102AC000C9F808200AB0BDE8F087000020C1010065
:102AD00070B50D4601461446D36850692A4607F082
:102AE00099FE002807DA411C07D0E16820F0004079
:102AF00041F48041E160281A70BD2046FFF7E8FAF2
:102B00004FF0FF3070BDC1680022026021F4805197
:102B100041F0400111F4C06FC16001D08260704784
:102B200002694168891AC269891A816070472DE972
:102B3000F0470446C06840F48000E060010313D50C
:102B400020F40020E060810607D4E26A61688A42CE
:102B500000D80A46A2EB0101216040F40010E060B9
:102B600094F82500BDE8F08720F40010E0608006AE
:102B700002D52046FFF703FBE06842F281014FF0E7
:102B8000FF390140012903D02046FFF7A1FAB8E040
:102B90002168002600290ADAC94340F480502160E8
:102BA000C4E902606068411C61600078DAE744F2C1
:102BB000400108420ED020F4A04040F040002660C2
:102BC000E06021696068A0EB0100E169A0EB010011
:102BD000A06096E0216991B9C00310D4E069FDF7C7
:102BE000CDFE2061B0B1E06840F4006010F4407F99
:102BF000E06002D140F48070E06020696060E068CD
:102C0000D4F814A0C1061AD5C0030ED52046FFF78C
:102C100093FA14E004F1240020610120E061E068EF
:102C200020F4407040F48060E6E721696068401A53
:102C3000A1690144504607F0F5FD0028A4DBE068D7
:102C4000C0032AD56168E06A884200D80846216935
:102C5000451AE069471B1BD02046D4F81880FFF7BF
:102C60006BFA08EB05015046C4F8188007F0DAFD4E
:102C7000002889DBE06840F40030E060000202D503
:102C8000A0692844A061E1692069C91B45180DE0CD
:102C90002046FFF751FAE769F5E725696168D4E94D
:102CA0000607491BE56208446560A061E06820F002
:102CB000100010F4C06FE06002D0204600F026FA49
:102CC000E06840F48050C4E90260000205D5206944
:102CD000E06260606FF0010044E722463946284612
:102CE000FFF7F6FE411C0CD02918E16258B1401ED6
:102CF0002060681C6060E06840F40030E060287884
:102D000030E748462EE765602046FFF7FCFEF8E70F
:102D10002DE9F04704461E4690460D46C7684C30E4
:102D2000814607F059FCB80714D0780212D4404607
:102D3000B8F5807F09D0B0F5007F06D0B8F5806F78
:102D400008D1012604F1240506E0701E6FF07F41D2
:102D5000884201D3012409E02561E6616560E068ED
:102D600020F4706040EA0800E0600024484607F064
:102D70005BFC2046BDE8F0872DE9F05F0E468046FB
:102D80001C46924602FB06F503F14C00834607F011
:102D900023FC26B3A768002043E0002F43DCE06952
:102DA000A8421EDAB9F1000F1BD022462946404640
:102DB000FFF798F908B1A7602BE0E06810F4C06F46
:102DC00001D000200AE022696168C003A1EB020182
:102DD000E269A2EB0101A16001D44842A06054461F
:102DE00018E0A84203DAE06840F40000E060214601
:102DF00098F80000FFF77CF8E16821F40001E16039
:102E0000411C06D0A76800280ADB6D1E08F10108E6
:102E100018E00024584607F007FC2046BDE8F09F64
:102E2000012081460EE0AF423E4600DD2E4641467F
:102E300032466068FEF764FB6068BF1BAD1B304420
:102E4000B0446060002DA8DCA760C8E710B500F0B2
:102E500097F9BDE8104000F08DB910B500F0AAF95F
:102E6000BDE8104000F086B930B503461D781DB1AD
:102E70000A4603E0AC4201D1181A30BD12F8014BEA
:102E8000002CF7D15B1CF1E730B503461D783DB14E
:102E90000A4612F8014B1CB1AC42FAD15B1CF5E7B3
:102EA000181A30BD7546FDF70BFDAE4605006946A4
:102EB000534620F00700854618B020B5FDF7EEFC1C
:102EC000BDE820404FF000064FF000074FF000082B
:102ED0004FF0000B21F00701AC46ACE8C009ACE8AC
:102EE000C009ACE8C009ACE8C0098D4670472DE9BF
:102EF000F041044617460D4602F14C00804607F0AB
:102F00006BFB012D264616DD38460CF0C1F9411C3D
:102F10000FD0C0B20A2804F8010B02D06D1E012D9B
:102F2000F2DC00202070404607F07EFB3046BDE812
:102F3000F081B44201D10026F5E7387B0006F0D5D8
:102F40000026EEE72DE9F041044600F14C07384633
:102F500007F042FBE068810712D0800601D5A66A1F
:102F600004E0A169606808442169461A2046FFF719
:102F7000E3F80022054631462046FDF7FDFF00E05C
:102F80000025384607F050FB2846BDE8F0812DE9C2
:102F9000F04118B1BDE8F041FFF7D4BF0B4E00255A
:102FA000304607F019FB0A4C6F1E07E02046FFF77A
:102FB000C9FF00B13D46206D20F00104002CF5D181
:102FC000304607F031FB2846DFE7000058030020B9
:102FD000708F00202DE9FF4F06461C468B4681B0BE
:102FE00003F14C00009007F0F7FABBF1000F06D098
:102FF00003992768002528460BFB01F965E00024AA
:103000007CE0002F63DCE069484541DABAF1000F4B
:103010003ED0207B800601D5A06A04E0A1696068EB
:1030200008442169401A2246A9EB05018046304632
:10303000FFF74EFD002814DD4FF000078044A8F193
:1030400001010644A161226916F8011C05441170B2
:10305000216901F10101E1626160E16841F400313F
:10306000E160411C03D010B1207B400642D52046D0
:10307000FFF749FDC4F8188020696060E062E068ED
:10308000276020F40030E060E0694042A06018E072
:10309000484503DAE06840F40000E0602046FFF7AE
:1030A00046FDE16821F40001E160411C08D0811C6B
:1030B0000AD02768002807DB6D1C06F8010B19E011
:1030C0002760B5FBFBF419E00120824612E0A9EB72
:1030D0000500B846B84200DA80463046424661688C
:1030E000FEF70EFA6168A7EB0807464401EB0800FB
:1030F000454460604D4584DB2760039C009807F0E1
:1031000093FA05B02046BDE8F08F00002DE9F047A6
:1031100007461348814607F05FFA124C40F2022836
:1031200017E094F85000C00710D0BC420ED004F154
:103130004C05284607F050FAE668284607F074FA6E
:1031400038EA060002D12046FFF7FCFE206D20F091
:103150000104002CE5D1484607F066FABDE8F08787
:1031600058030020708F00200446AFF300802046F3
:10317000FDF76CF8002801D007F011BB7047000084
:1031800010B5014602A000F03DF8012010BD00007E
:1031900053494752545245443A2052656469726516
:1031A00063743A2063616E2774206F70656E3A20F5
:1031B0000000000010B5012805D0002103A000F098
:1031C00021F8012010BD09A1F8E70000534947523A
:1031D000544D454D3A204F7574206F6620686561E7
:1031E00070206D656D6F7279000000003A204865AF
:1031F0006170206D656D6F727920636F727275708A
:103200007465640070B505460C460A2000E06D1C2C
:1032100007F018FB35B128780028F8D102E0641CCB
:1032200007F010FB14B120780028F8D1BDE87040F9
:103230000A2007F007BB5FEA400C08BF91F0000FBF
:103240004FEA8C234FEAC12243EA51514FEA1C5006
:1032500018BF00F5F0404FEA300018BF41F00041C0
:103260005FEA6C5C00F02980BCF1FF3F08BF40F0D2
:1032700080407047130C06BF12044FF0100C4FF043
:10328000000C130E04BF12020CF1080C130F04BF44
:1032900012010CF1040C930F04BF92000CF1020C0C
:1032A000D30F04BF52000CF1010C11464FF0000285
:1032B000A0F11F00A0EB0C00704711F0004F08BFF9
:1032C000704731F000413FF4D5AF0B0C06BF090445
:1032D0004FF0100C4FF0000C0B0E04BF09020CF164
:1032E000080C0B0F04BF09010CF1040C8B0F04BF79
:1032F00089000CF1020CCB0F04BF49000CF1010C4A
:10330000CCF12003A0EB0C0022FA03F302FA0CF23A
:1033100041EA030100F10100704720F07F4C80EA90
:10332000030023F07F47ACEB070303F57C5300F069
:10333000004003F1FF032DE980494FEA154B09B422
:103340004FEA144325EA0B4E24EA03480FF2042601
:1033500006EB132749083E785FEA320203FB066753
:10336000C7F5000707FB06F64FEA54374FEAD64683
:1033700006F1020607FB066CCCF1005C4FEA1C4725
:103380002CEA074C07FB06F40CFB06F504EB15468C
:103390004FEA961634BF00204FF000404FEAD13775
:1033A00006FB07FC4FEA1C4C0CFB0BF7D21B03FB84
:1033B0000CF761EB07010CFB0EF7B0EB074072EB6B
:1033C00017420CFB08F734BFA2EB0742B2EB0742EF
:1033D00061EB17414FEA0C444FEA910706FB07FCEB
:1033E0004FEA1C4C0CFB0BF7B0EBC74072EB5732AB
:1033F00003FB0CF734BFA2EBC742B2EBC74261EB51
:1034000057310CFB0EF7B0EBC70072EB57720CFB99
:1034100008F734BFA2EBC702B2EBC70261EB5771EA
:10342000039F4FEA816141EA921104EBCC044FEA19
:10343000D1374FEA826206FB07FC42EA90124FEA5C
:1034400080604FEA1C4C0CFB0BF7D21B03FB0CF704
:1034500061EB07010CFB0EF7B0EB074072EB174274
:103460000CFB08F734BFA2EB0742B2EB074261EB5B
:1034700017414FEA8C554FEA910704EB9C2406FB59
:1034800007FC4FEA1C4C0CFB0BF7B0EBC74072EB90
:10349000573203FB0CF734BFA2EBC742B2EBC74273
:1034A00061EB57310CFB0EF7B0EBC70072EB5772B4
:1034B0000CFB08F734BFA2EBC702B2EBC70261EB0B
:1034C000577115EB4C254FEA816141EA92114FEAA1
:1034D00082624FEAD13742EA901206FB07FC44F1C0
:1034E00000044FEA80604FEA1C4C0CFB0BF7D21B28
:1034F00003FB0CF761EB07010CFB0EF7B0EB074089
:1035000072EB17420CFB08F734BFA2EB0742B2EB99
:10351000074261EB174115EB1C154FEA813141EA77
:1035200092414FEA823242EA90424FEA80304FEABB
:103530000C7644F1000448EA03434EEA0B484FF08E
:10354000000EB2EB080C71EB030724BF624639464C
:103550004EEB0E0E4FF0000B0018524149414BEB61
:103560000B0BB2EB080C71EB03077BF1000B24BFD4
:10357000624639464EEB0E0E4FF0000B00185241DA
:1035800049414BEB0B0BB2EB080C71EB03077BF1E2
:10359000000B24BF624639464EEB0E0E51EA02077D
:1035A00018BF46F0010616EB0E7655F1000254F1F5
:1035B000000103D5BDE88901BDE80088BDE88901A7
:1035C000BDE80048B619524141EB0101A3F10103E6
:1035D000704780807F7E7D7C7B7A79787776767580
:1035E0007473727171706F6E6E6D6C6C6B6A6A69F8
:1035F0006868676666656464636362616160605F92
:103600005F5E5E5D5D5C5C5B5B5A5A59595858570A
:103610005756565555555454535352525251515072
:1036200050504F4F4F4E4E4D4D4D4C4C4C4B4B4BC5
:103630004A4A4A494949484848474747474646460B
:103640004545454444444443434343424242424146
:103650004141002B26D4770021D01CB54FEA370713
:1036600003B44FF010004FF010014FF000000FBCFA
:10367000BDE810400BF1010BBBF1010F08BF5FEA81
:10368000170722BF12F1010211F101014FF00041B1
:1036900043F1000300F0004043EA00007047F9D313
:1036A0005708DAE746EA064613F1400F4FEA164696
:1036B0001FDD13F1200FDFBF16430A460021203320
:1036C0005B42C8D0C3F1200746EA064602FA07F774
:1036D0004FEA164646EA0706C3F1200722FA03F22C
:1036E00001FA07F721FA03F14FF0000342EA07025B
:1036F000B1E746EA020646EA06464FEA164646EAB9
:103700000106BCBF46EA0646360C4FF000034FF0F8
:1037100000024FF000019EE72DE9C048934630B407
:1037200091E8380007C831EA400C48BF34EA430C3E
:1037300003D5FFF7F2FDFFF78CFFF0BCBDE8008872
:103740002DE9C048934630B491E8380007C810F01E
:10375000804F08BF13F0804F03D100F005F8FFF74A
:1037600078FFF0BCBDE8008820F07F4780EA0300C6
:1037700023F07F4C07EB0C03A3F57C5300F00040D3
:10378000A3F1FE0392F0000F00F0B38095F0000F5C
:1037900000F077802DE901494FEA11404FEA1446C5
:1037A00021EA004800FB06FC24EA064708FB06F66F
:1037B00007FB08F800FB07F718EB06484CEB164C24
:1037C0004FEA124B18EB07484FEA15464CEB1740EF
:1037D00022EA0B4E0BFB06FC25EA06470EFB06F61B
:1037E00007FB0EFE0BFB07F71EEB064E4CEB164CD1
:1037F0004FF000061EEB074E4CEB174B18EB0B0877
:1038000040F1000018EB0E0B58EB000840F10000EF
:103810008F1A4FF000013CBFC943661B14BFB5EBC4
:10382000040C00213CBFC943F61B4FEA17444EEA83
:103830008E0E27EA04454FEA1C4704FB07622CEA78
:10384000074C05FB07F70CFB05F604FB0CFC16EB1D
:10385000074642EB174216EB0C4642EB1C421BEBB1
:10386000060658EB0202414146EA9E0601D5BDE834
:103870000189B619524141EB0101A3F10103BDE8F1
:1038800001894FEA14454FEA114724EA054621EA27
:10389000074C05FB07F406FB07F70CFB06F105FBDD
:1038A0000CFC11EB074144EB17444FEA124711EBB4
:1038B0000C4144EB1C4422EA074C05FB07F206FBD3
:1038C00007F70CFB06F605FB0CFC16EB074642EB74
:1038D000174216EB0C4642EB1C456A1854F10001E6
:1038E00048BF7047B619524141EB0101A3F10103F2
:1038F000704795F0000F37D04FEA11424FEA144756
:1039000021EA024624EA074C02FB07F106FB07F70F
:103910000CFB06F402FB0CFC14EB074441EB1741D3
:103920004FEA154714EB0C4441EB1C4125EA074CC8
:1039300002FB07F506FB07F70CFB06F602FB0CFC87
:1039400016EB074645EB174516EB0C4645EB1C42BC
:10395000121951F1000148BF7047B619524141EBAD
:103960000101A3F1010370474FEA14454FEA1147E3
:1039700024EA054621EA074C05FB07F106FB07F799
:103980000CFB06F24FF0000605FB0CFC12EB0742A5
:1039900041EB174112EB0C4251EB1C4148BF704701
:1039A000921841EB0101A3F10103704700000000F0
:1039B0002DE9F041DDF81CE0DEF8004030F9026B43
:1039C00004F5805806EB683808F30F0722F8027BED
:1039D000B1F90070DEF8045007FB0654CEF8004041
:1039E000B1F90270DEF8084007FB0645CEF8045036
:1039F000B1F90470DEF80C5007FB0654CEF808400D
:103A0000B1F90670DEF8104007FB0645CEF80C5001
:103A1000B1F90870DEF8145007FB0654CEF81040D8
:103A2000B1F90A70DEF8184007FB0645CEF81450CD
:103A3000B1F90C70DEF81C5007FB0654CEF81840A4
:103A4000B1F90E70DEF8204007FB0645CEF81C5099
:103A5000B1F91070DEF8245007FB0654CEF8204070
:103A6000B1F9127007FB06F7CEF824705B1EA3D1E4
:103A7000BDE8F081F8B50A2013F0DEF819F00AF875
:103A800004460D460B4602200E490090224601F1E5
:103A900010000CF067FF0B4E034610360A46D6E9BD
:103AA0000001C6E90201C6E90032103ED6E9000174
:103AB000C6E90201C6E900451846114618F0A6FFFE
:103AC00080B2F8BD48600020F8B50B2013F0B4F8C0
:103AD00018F0E0FF04460D460B4602200E49009008
:103AE000224601F110000CF03DFF0B4E034610364C
:103AF0000A46D6E90001C6E90201C6E90032103ED5
:103B0000D6E90001C6E90201C6E90045184611469A
:103B100018F07CFF80B2F8BD28600020F8B50C20BA
:103B200013F08AF818F0B6FF04460D460B46022043
:103B30000E490090224601F110000CF013FF0B4ECD
:103B4000034610360A46D6E90001C6E90201C6E975
:103B50000032103ED6E90001C6E90201C6E900457F
:103B60001846114618F052FF80B2F8BD08600020D8
:103B700070B504460F480D4684420AD00E48844270
:103B800007D00E48844204D04FF497710CA007F080
:103B90005DF855B1012D04D040F22F1108A007F0B7
:103BA00055F8A06840F0010002E0A06820F0010094
:103BB000A06070BD0024014000280140003C01408D
:103BC0002E2E5C4C69627261726965735C53544D50
:103BD0003332463130785F5374645065726970686F
:103BE0005F4472697665725C7372635C73746D3383
:103BF00032663130785F6164632E630070B50446CD
:103C00000A48002584420AD00948844207D009485E
:103C1000844204D04FF4D97107A007F017F8A068C8
:103C2000400700D50125284670BD00000024014052
:103C300000280140003C01402E2E5C4C69627261FC
:103C4000726965735C53544D3332463130785F533B
:103C500074645065726970685F4472697665725CFD
:103C60007372635C73746D3332663130785F616494
:103C7000632E630010B50446084884420AD0084801
:103C8000844207D00748844204D040F2C72106A0EE
:103C900006F0DCFFE06C80B210BD000000240140A3
:103CA00000280140003C01402E2E5C4C696272618C
:103CB000726965735C53544D3332463130785F53CB
:103CC00074645065726970685F4472697665725C8D
:103CD0007372635C73746D3332663130785F616424
:103CE000632E630070B50546124800260C468542D7
:103CF0000AD01148854207D01048854204D040F2CE
:103D0000AF410FA006F0A2FF012C0CD0022C0AD06C
:103D1000042C08D0082C06D0102C04D04FF4966147
:103D200007A006F093FF2868204200D00126304605
:103D300070BD00000024014000280140003C01400B
:103D40002E2E5C4C69627261726965735C53544DCE
:103D50003332463130785F537464506572697068ED
:103D60005F4472697665725C7372635C73746D3301
:103D700032663130785F6164632E630070B504464B
:103D80000A48002584420AD00948844207D00948DD
:103D9000844204D04FF4C67107A006F057FFA06814
:103DA000000700D50125284670BD00000024014011
:103DB00000280140003C01402E2E5C4C696272617B
:103DC000726965735C53544D3332463130785F53BA
:103DD00074645065726970685F4472697665725C7C
:103DE0007372635C73746D3332663130785F616413
:103DF000632E63002DE9F047054644480C46854292
:103E000009D04348854206D04248854203D0DF218D
:103E100041A006F01BFF4FF40036206877004FF4F6
:103E2000C0284FF40029D0B1B0F5803F17D0B04280
:103E300015D0B0F5403F12D0B84210D0B0F5A02F49
:103E40000DD040450BD0B0F5E02F08D0484506D046
:103E5000B0F5102F03D0E0212FA006F0F7FE207957
:103E600028B1012803D0E1212BA006F0EFFE6079F4
:103E700028B1012803D0E22127A006F0E7FEA068C0
:103E8000A0B1B04212D0B84210D040450ED0484543
:103E90000CD0B0F5202F09D0B0F5402F06D0B0F5EA
:103EA000602F03D0E3211CA006F0D0FEE06830B103
:103EB000B0F5006F03D0E42117A006F0C7FE207C08
:103EC000401E0F2803D9E52113A006F0BFFE696844
:103ED000204822790140206841EA022108436860B5
:103EE000A8681D490840D4E902211143627940EADB
:103EF00042000143A960E86A20F47001207C401E62
:103F0000C0B241EA0050E862BDE8F08700240140F9
:103F100000280140003C01402E2E5C4C6962726119
:103F2000726965735C53544D3332463130785F5358
:103F300074645065726970685F4472697665725C1A
:103F40007372635C73746D3332663130785F6164B1
:103F5000632E6300FFFEF0FFFDF7F1FF2DE9F04156
:103F6000064648481D4617460C4686420AD0464833
:103F7000864207D04548864204D040F2522144A0F0
:103F800006F064FE34B3012C24D0022C22D0032C82
:103F900020D0042C1ED0052C1CD0062C1AD0072CA7
:103FA00018D0082C16D0092C14D00A2C12D00B2CA7
:103FB00010D00C2C0ED00D2C0CD00E2C0AD00F2CA7
:103FC00008D0102C06D0112C04D040F2532130A080
:103FD00006F03CFEA7F10108B8F10F0F04D94FF429
:103FE00015712BA006F032FE95B1012D10D0022DD7
:103FF0000ED0032D0CD0042D0AD0052D08D0062D8F
:1040000006D0072D04D040F2552121A006F01EFE57
:104010000720092C0AD9F168A4F10A0202EB420236
:104020009040814395402943F16007E0316904EBFA
:104030004402904081439540294331611F20072F5E
:1040400009D2716B08EB8802904081439440214370
:104050007163BDE8F0810D2F09D2316BFF1F07EBB3
:10406000870290408143944021433163F1E7F16A34
:104070000D3F07EB87029040814394402143F1625A
:10408000E7E700000024014000280140003C014017
:104090002E2E5C4C69627261726965735C53544D7B
:1040A0003332463130785F5374645065726970689A
:1040B0005F4472697665725C7372635C73746D33AE
:1040C00032663130785F6164632E630010B5044658
:1040D000094884420AD00948844207D008488442EB
:1040E00004D04FF4BF7107A006F0B0FDA06840F007
:1040F0000800A06010BD000000240140002801401D
:10410000003C01402E2E5C4C6962726172696573DD
:104110005C53544D3332463130785F53746450658C
:10412000726970685F4472697665725C7372635C11
:1041300073746D3332663130785F6164632E63006F
:1041400070B504460F480D4684420AD00E4884429A
:1041500007D00E48844204D04FF4E6710CA006F05C
:1041600075FD55B1012D04D040F2CD1108A006F027
:104170006DFDA06840F4A00002E0A06820F4A0005B
:10418000A06070BD0024014000280140003C0140B7
:104190002E2E5C4C69627261726965735C53544D7A
:1041A0003332463130785F53746450657269706899
:1041B0005F4472697665725C7372635C73746D33AD
:1041C00032663130785F6164632E630010B5044657
:1041D000094884420AD00948844207D008488442EA
:1041E00004D04FF4D27107A006F030FDA06840F073
:1041F0000400A06010BD0000002401400028014020
:10420000003C01402E2E5C4C6962726172696573DC
:104210005C53544D3332463130785F53746450658B
:10422000726970685F4472697665725C7372635C10
:1042300073746D3332663130785F6164632E63006E
:104240000248018841F0010101807047346C004050
:1042500010B5040005D0012C03D0A32102A006F064
:10426000F5FC1048046010BD2E2E5C4C6962726132
:10427000726965735C53544D3332463130785F5305
:1042800074645065726970685F4472697665725CC7
:104290007372635C73746D3332663130785F626B56
:1042A000702E630088860D4238B5044600200090C9
:1042B000042C55D0082C53D00C2C51D0102C4FD09E
:1042C000142C4DD0182C4BD01C2C49D0202C47D06E
:1042D000242C45D0282C43D0402C41D0442C3FD016
:1042E000482C3DD04C2C3BD0502C39D0542C37D0BE
:1042F000582C35D05C2C33D0602C31D0642C2FD08E
:10430000682C2DD06C2C2BD0702C29D0742C27D05D
:10431000782C25D07C2C23D0802C21D0842C1FD02D
:10432000882C1DD08C2C1BD0902C19D0942C17D0FD
:10433000982C15D09C2C13D0A02C11D0A42C0FD0CD
:10434000A82C0DD0AC2C0BD0B02C09D0B42C07D09D
:10435000B82C05D0BC2C03D0F62104A006F076FCC6
:10436000114820440090008838BD00002E2E5C4C7F
:1043700069627261726965735C53544D33324631C0
:1043800030785F5374645065726970685F44726915
:104390007665725C7372635C73746D333266313050
:1043A000785F626B702E6300006C004010B50400F3
:1043B00005D0012C03D0962102A006F047FC10483E
:1043C000046010BD2E2E5C4C696272617269657367
:1043D0005C53544D3332463130785F5374645065CA
:1043E000726970685F4472697665725C7372635C4F
:1043F00073746D3332663130785F626B702E630098
:1044000000860D4238B5044600200D460090042C6D
:1044100055D0082C53D00C2C51D0102C4FD0142C2C
:104420004DD0182C4BD01C2C49D0202C47D0242CFC
:1044300045D0282C43D0402C41D0442C3FD0482C90
:104440003DD04C2C3BD0502C39D0542C37D0582C4C
:1044500035D05C2C33D0602C31D0642C2FD0682C1C
:104460002DD06C2C2BD0702C29D0742C27D0782CEC
:1044700025D07C2C23D0802C21D0842C1FD0882CBC
:104480001DD08C2C1BD0902C19D0942C17D0982C8C
:1044900015D09C2C13D0A02C11D0A42C0FD0A82C5C
:1044A0000DD0AC2C0BD0B02C09D0B42C07D0B82C2C
:1044B00005D0BC2C03D0E32103A006F0C7FB1148B4
:1044C00020440090056038BD2E2E5C4C69627261FC
:1044D000726965735C53544D3332463130785F53A3
:1044E00074645065726970685F4472697665725C65
:1044F0007372635C73746D3332663130785F626BF4
:10450000702E6300006C0040FEE7000048F6A041FA
:10451000884201D3002024E044F25061884201D354
:1045200001201EE042F22831884201D3022018E027
:1045300041F29411884201D3032012E040F6CA01EF
:10454000884201D304200CE040F26541884201D347
:10455000052006E040F23221884201D3062000E027
:10456000072004490A8822F0380242EAC000088085
:10457000012070470030014010B5064CC1B2204602
:1045800005F0BEF88021204604F02AFE0028F9D06C
:1045900010BD0000004C004070B50F4C216900298F
:1045A00003D06079002508B1657170BD0120DFF886
:1045B0002CC000DF0220DFF824C0216900DF0420C6
:1045C000DFF818C0216900DF25700120DFF810C076
:1045D000216900DF70BD0000A8010020B946030872
:1045E0002D47030870B50C46054605E015F9010B8B
:1045F000FFF7C2FF641EA4B2002CF7D170BD00000B
:1046000010B50022044B03E050F822401C60521CFD
:104610008A42F9D3186810BD0030024001490120D8
:1046200088607047003002400120704705494A7891
:10463000002A06D00978002903D10146024805F076
:1046400053B87047EC0000200038014005494A7813
:10465000002A06D00978002903D10146024805F056
:104660004FB87047EC00002000380140064A5378EC
:10467000002B07D01278002A04D10A4601460348CD
:1046800005F04EB870470000EC00002000380140F3
:104690007047000010B5012000F04AF8002812D041
:1046A00009484FF480620178012909D0074B1A604C
:1046B000C1F101010170BDE81040012000F00AB80D
:1046C000024B1B1FF3E710BD1C0000201414014017
:1046D0007047000010B50446000D00D11CB9FC2144
:1046E00002A006F0B3FA1148046010BD2E2E5C4CF7
:1046F00069627261726965735C53544D333246313D
:1047000030785F5374645065726970685F44726991
:104710007665725C7372635C73746D3332663130CC
:10472000785F657874692E6300000000140401400E
:1047300070B500250446012835D0022C33D0042C56
:1047400031D0082C2FD0102C2DD0202C2BD0402C49
:1047500029D0802C27D0B4F5807F24D0B4F5007FF9
:1047600021D0B4F5806F1ED0B4F5006F1BD0B4F526
:10477000805F18D0B4F5005F15D0B4F5804F12D02B
:10478000B4F5004F0FD0B4F5803F0CD0B4F5003F26
:1047900009D0B4F5802F06D0B4F5002F03D0E52161
:1047A00007A006F053FA1648006815492040143156
:1047B0000968214201D000B10125284670BD0000E2
:1047C0002E2E5C4C69627261726965735C53544D44
:1047D0003332463130785F53746450657269706863
:1047E0005F4472697665725C7372635C73746D3377
:1047F00032663130785F657874692E63000000009E
:104800000004014010B5044630F0350000D124B951
:1048100040F2B65102A006F019FA1148C46010BD6A
:104820002E2E5C4C69627261726965735C53544DE3
:104830003332463130785F53746450657269706802
:104840005F4472697665725C7372635C73746D3316
:1048500032663130785F666C6173682E63000000E9
:104860000020024070B505461149A0F10060884261
:1048700004D340F2A7110FA006F0E8F94FF4302658
:10488000304600F0B5F8042811D11A4C206940F0E8
:10489000020020616561206940F0400020613046DF
:1048A00000F0A6F8216941F6FD721140216170BD4A
:1048B000FFFF0F002E2E5C4C696272617269657396
:1048C0005C53544D3332463130785F5374645065D5
:1048D000726970685F4472697665725C7372635C5A
:1048E00073746D3332663130785F666C6173682E35
:1048F000630000000020024008490420CA68D20773
:1049000001D001207047CA68520701D502207047C4
:10491000C968C906FBD5032070470000002002408B
:104920000248016941F080010161704700200240A6
:104930002DE9F84305460E46002000901449A5F1E4
:104940000060884204D340F2AF2112A006F07EF945
:104950004FF40057384600F04BF8042816D11D4C90
:10496000206940F0010020612E80B846384600F0F2
:104970003FF8BF1E042806D1AD1C300C00952880DE
:10498000404600F035F8216939402161BDE8F883DF
:10499000FFFF0F002E2E5C4C6962726172696573B5
:1049A0005C53544D3332463130785F5374645065F4
:1049B000726970685F4472697665725C7372635C79
:1049C00073746D3332663130785F666C6173682E54
:1049D000630000000020024003480249416003498F
:1049E000416070472301674500200240AB89EFCD4D
:1049F00000B50346FFF780FF03E000BFFFF77CFF31
:104A00005B1E012803D0002B00D1052000BD002B28
:104A1000F4D1FAE706490978012907D1054909784F
:104A2000012903D10146044804F05EBE704700002E
:104A3000D8020020ED0000200038014010B541F2FE
:104A400011111020FFF7DEFCDFF80CC000DF14F0BE
:104A50004FFA002010BD0000955103082DE9F047E2
:104A6000044686B053A0FFF7D5FFDFF86481D8F87D
:104A70001C20002A0AD1052356A22146684611F0BF
:104A8000A5FE042805D054A0FFF7C4FF06B0BDE87A
:104A9000F087039890F9011090F9000012F0AAF83D
:104AA000524E0446DFF848913078DFF848A10128DB
:104AB00007D199F80000012803D12146504604F09F
:104AC0001FFE009807F0F7FB0746019807F0F3FB7D
:104AD0004740029807F0EFFB4740F9B2A1420AD0E5
:104AE00030780128D2D199F800000128CED1504663
:104AF00004F006FECAE701210620FBF7E6FEC8F82F
:104B00000800444601211420FBF7DFFE606101210B
:104B10000520FBF7DAFEE060012140F20340FBF7DD
:104B2000D4FE20610028B1D0E0680028AED0A06893
:104B30000028ABD060690028A8D02FA0FFF76AFF3B
:104B40000099A068FCF742FC01996069FCF73EFC03
:104B50000299E068FCF73AFC029890F9011090F98C
:104B6000000012F047F860F31F65029890F90310F7
:104B700090F9020012F03EF860F31745029890F9A0
:104B8000051090F9040012F035F860F30F25029833
:104B900090F9071090F9060012F02CF860F3070561
:104BA00000231E4A1E491F48DFF87CC0A56100DFB4
:104BB000E0616BE70D0A46494D5257415245204688
:104BC000696C652068616E6465720D0A0000000002
:104BD000580100202C00000046573A2057726F6E93
:104BE000672064656D616E640D0A0000D8020020C4
:104BF000ED000020003801400D0A437265617465C4
:104C0000205461736B20646F776E6C6F61642066F3
:104C100069726D776172650D0A000000C052002054
:104C200001200300458303088D5003080248C06932
:104C3000002800D00120704758010020F0B506463A
:104C40008DB0002517A11848FCF734FB164C241F23
:104C50000028206021D0FFF7E1FC30216846FCF7F6
:104C600032FD01270CE06846FCF7D4FB07EB90010E
:104C70006846FFF7C5FC054630216846FCF723FD72
:104C80002E2168462268FEF732F90028EBD1206811
:104C9000FCF764FAB54202D006200DB0F0BD052045
:104CA000FBE7000072000000380100202DE9F04110
:104CB00080460D46C820DFF854C000DF5FF00404D2
:104CC00006F056FF20B92000A4F10104E4B2F7D1A8
:104CD0006CB109244FF496764FF4FA7732462946A0
:104CE000404606F095FF20B10120BDE8F08100208C
:104CF000FBE716F0D9FB3846DFF810C000DF2000D4
:104D0000A4F10104E4B2E9D1EFE70000B1460308E1
:104D10002DE9F04188460746154611B2404607F096
:104D20000FF9C6B24FF47A70854200D90546680083
:104D3000C01CFBF723FE00283DD0242104461B2283
:104D400000F8011B232F03D01B2F01D0242F01D1EA
:104D500000F8012B07210770417000218170C01CF1
:104D600010E000BF18F80130232B03D01B2B01D01B
:104D7000242B01D100F8012B18F80130491C00F850
:104D8000013B89B2A942EDD3232E03D01B2E01D0C3
:104D9000242E01D100F8012B232106704170801CC4
:104DA000001B81B20122204606F08CFF05462046FA
:104DB000FBF71FFE68B2BDE8F08100002DE9F04F5F
:104DC00000278FB00546441D3E4615F057FB4FF4B3
:104DD000FA7B5846DFF894C200DF4FF4165015F006
:104DE000CFFB5846DFF884C200DF14F009FD0CAB9E
:104DF0000DAA0BA90AA88DE80F0009AB08AA9CA16F
:104E00002046FBF7E5FF9DF8240090B10C2810D850
:104E10009DF820001F280CD858B19DF82C20172A87
:104E200007D89DF834103B2903D89DF830003B2863
:104E300004D914F0FFFD14F0C9FD00E1092801D9DF
:104E40000A380CE009B1491E04E03AB1521E8DF84F
:104E50002C203B218DF83410323000E0002004A9D2
:104E60008DF830008A1C491C04A815F043F89DF801
:104E700010009DF82010884212D19DF811009DF875
:104E8000241088420CD19DF812009DF82810884209
:104E900006D101274FF6FF717D48DFF8F8C100DF2A
:104EA0009DF8280000909DF824309DF820207AA1DC
:104EB00004A8FBF71DFE7EA104A8FCF7FBF95FEA3E
:104EC000000A0ED028210120FBF7FFFC040010D0BF
:104ED00078A179A0FCF7EEF94FF00009C8460090E0
:104EE0004CE014F0A7FD681D01F046FF14F078FDBA
:104EF000A0E074A014F0C8FC14F0B4FC504697E095
:104F00005346012228212046FEF764F8E18A4945EC
:104F100005D02046009917F055FAB4F81690A18AEA
:104F2000414505D02046009917F086FAB4F8148060
:104F30009DF82C102068B1EBD06F1FD89DF834205D
:104F4000C0F34551914219D39DF83010C0F3C532DA
:104F50008A4213D39DF82020C0F3842191420DD3BF
:104F60009DF82420C0F38311914207D39DF82810A7
:104F700000F03F00884201D3012604E05046FCF7D0
:104F80001DF90028BCD014F055FD282104F11E00A5
:104F900014F0A8FC681D01F0EFFE04224FA1284682
:104FA000FCF757FA30B104224EA12846FCF751FA1B
:104FB00088B336E076B14DA014F066FCE18C208A0F
:104FC00014F018FD01208DF82C005046FCF7F6F87F
:104FD00000BB03E047A014F057FC22E09DF82C2012
:104FE00049A1521C04A8FBF783FD04A814F04CFC53
:104FF0005346012228212046FDF7ECFFE18C208A50
:1050000014F0F8FC9DF82C00401CC0B28DF82C0068
:105010000A28DAD305E0FFE70C212046009A14F0B5
:1050200041FD5046FCF79AF82046FBF7E2FC009859
:10503000FCF794F81FB11648DFF8D4C000DF14F075
:1050400011FC14F0BFFB5C465846DFF820C000DFBF
:105050004FF4965015F094FA2046DFF810C000DFA8
:1050600006F0E0FA0FB0BDE8F08F0000B14603088B
:1050700025303275202530327520253032752025B7
:105080003032752025303275202530327500000011
:105090002C370020F94B03086C6F675C25303275A4
:1050A00025303275253032752E6C6F670000000098
:1050B00072622B0077622B0054656D705C696E2EF6
:1050C000746D70004C6F692074726F6E672071751B
:1050D00061207472696E6820696E0000496E323A10
:1050E00000000000496E313A0000000030313A20E3
:1050F000000000004B686F6E6720636F20647520AE
:105100006C69657521000000253032753A20000079
:105110004D4B03082DE9F0410546464800270E4651
:10512000854215D04448854212D0444885420FD06C
:10513000434885420CD04348854209D042488542C5
:1051400006D04248854203D0B22141A005F07EFD41
:10515000F07888B104280FD028280DD048280BD02B
:10516000142809D0102807D01C2805D0182803D0EF
:10517000B32137A005F06AFD308818B9B42134A0F6
:1051800005F064FDF07800F00F04C0060CD5B0788F
:10519000012807D0022805D0032803D0BB212CA06A
:1051A00005F054FDB078044331784FF00F0E012024
:1051B000E1B12968338800FA07F21340934211D114
:1051C0004FEA870C0EFA0CF321EA030304FA0CF100
:1051D0001943F378282B02D0482B02D002E06A61F1
:1051E00000E02A617F1C082FE4D329603188FF2961
:1051F0001ED969685FF0000303F10802378800FADE
:1052000002F2174097420FD14FEA830C0EFA0CF7C7
:10521000B94304FA0CF73943F778282F00D16A61B3
:10522000F778482F00D12A615B1C082BE4D3696012
:10523000BDE8F08100080140000C01400010014071
:105240000014014000180140001C014000200140F2
:105250002E2E5C4C69627261726965735C53544DA9
:105260003332463130785F537464506572697068C8
:105270005F4472697665725C7372635C73746D33DC
:1052800032663130785F6770696F2E63000000000E
:105290002DE9F0410D46044601287DD0022C7BD03B
:1052A000042C79D0082C77D0A4F5A01010387CD02D
:1052B00020387AD0A4F5B010403876D0803874D039
:1052C0005248844271D0524884426ED05148844240
:1052D0006BD05148844268D05048844265D0B4F5C0
:1052E000805F62D0B4F5EA1F5FD0B4F5EB1F5CD0ED
:1052F000B4F5004F59D04A48844256D0A4F5001066
:10530000801E52D0801E50D0001F4ED008384CD086
:10531000B4F1201F49D0303847D04248844244D0AD
:105320004148844241D0414884423ED04048844272
:105330003BD04048844238D0B4F5011F35D03E48B8
:10534000844232D0401C84422FD0801C84422CD016
:10535000001D844229D038480F30844225D0364879
:105360001F30844221D034483F3084421DD032481F
:105370007F30844219D03048FF30844215D02F4806
:10538000844212D02E4884420FD02E4884420CD042
:105390002D48844209D000E007E02C48844204D024
:1053A00040F22A212AA005F051FC35B1012D04D08C
:1053B00040F22B2126A005F049FC3549002C01DAEA
:1053C000CA6900E04A68600D0001A3B2C4F3015746
:1053D0008340C4F30346032F05D0E0020AD503201F
:1053E000B040824307E022F070604A6822F07062A9
:1053F0004A6002E09A4342F0706005B11843002C05
:1054000002DAC861BDE8F0814860FBE700011800DE
:10541000000218000003180000081A00000C1A000F
:1054200001002000000130000002300000043000C4
:1054300000112000002020000100008000020080F8
:105440000004008000080080001000800020008020
:105450002E2E5C4C69627261726965735C53544DA7
:105460003332463130785F537464506572697068C6
:105470005F4472697665725C7372635C73746D33DA
:1054800032663130785F6770696F2E63000000000C
:105490000000014070B50546274800260C468542AD
:1054A00016D02648854213D02548854210D025487D
:1054B00085420DD0244885420AD02448854207D031
:1054C0002348854204D04FF48F7122A005F0BEFB23
:1054D000012C2AD0022C28D0042C26D0082C24D031
:1054E000102C22D0202C20D0402C1ED0802C1CD060
:1054F000B4F5807F19D0B4F5007F16D0B4F5806F75
:1055000013D0B4F5006F10D0B4F5805F0DD0B4F5B2
:10551000005F0AD0B4F5804F07D0B4F5004F04D037
:1055200040F21F110BA005F091FBA868204200D0AB
:105530000126304670BD000000080140000C01400B
:10554000001001400014014000180140001C0140FF
:10555000002001402E2E5C4C696272617269657395
:105560005C53544D3332463130785F537464506528
:10557000726970685F4472697665725C7372635CAD
:1055800073746D3332663130785F6770696F2E6384
:105590000000000070B5044611480D46844216D044
:1055A0001048844213D01048844210D00F488442DF
:1055B0000DD00F4884420AD00E48844207D00E48CE
:1055C000844204D040F279110CA005F03FFB25B9CC
:1055D0004FF4BD7109A005F039FB656170BD000095
:1055E00000080140000C014000100140001401407F
:1055F00000180140001C0140002001402E2E5C4C90
:1056000069627261726965735C53544D333246311D
:1056100030785F5374645065726970685F44726972
:105620007665725C7372635C73746D3332663130AD
:10563000785F6770696F2E630000000070B50446E4
:1056400011480D46844216D01048844213D01048A9
:10565000844210D00F4884420DD00F4884420AD0B3
:105660000E48844207D00E48844204D040F26911AB
:105670000CA005F0EBFA25B94FF4B57109A005F0BF
:10568000E5FA256170BD000000080140000C0140F2
:10569000001001400014014000180140001C0140AE
:1056A000002001402E2E5C4C696272617269657344
:1056B0005C53544D3332463130785F5374645065D7
:1056C000726970685F4472697665725C7372635C5C
:1056D00073746D3332663130785F6770696F2E6333
:1056E000000000004FF6FF7101800221817004214B
:1056F000C170704770B505462A4816460C4685426B
:1057000016D02948854213D02848854210D0284811
:1057100085420DD0274885420AD02748854207D0C8
:105720002648854204D040F28D1125A005F08EFA5E
:10573000012C2AD0022C28D0042C26D0082C24D0CE
:10574000102C22D0202C20D0402C1ED0802C1CD0FD
:10575000B4F5807F19D0B4F5007F16D0B4F5806F12
:1057600013D0B4F5006F10D0B4F5805F0DD0B4F550
:10577000005F0AD0B4F5804F07D0B4F5004F04D0D5
:105780004FF4C7710EA005F061FA46B1012E04D0A6
:1057900040F28F110AA005F059FA2C6170BD6C61BE
:1057A00070BD000000080140000C014000100140E5
:1057B0000014014000180140001C0140002001407D
:1057C0002E2E5C4C69627261726965735C53544D34
:1057D0003332463130785F53746450657269706853
:1057E0005F4472697665725C7372635C73746D3367
:1057F00032663130785F6770696F2E630000000099
:105800002DE9F047C820DFF8A8C000DF5FF00504ED
:1058100006F0AEF9B8B1D4B1264C4FF496764FF4F9
:10582000FA772078032822D2401C207022480225D3
:1058300000F1300900F1080832464946404606F0BA
:10584000E7F928BB06E0641E2404240CE0D1002004
:10585000BDE8F08715F028FE3846DFF854C000DFB9
:105860006D1E2D042D0CE7D10320207001E00628C9
:105870001AD2B146C0B2104E401C022506F13608BD
:1058800020701C364A464146304606F0C1F908B140
:105890000120DDE715F008FE3846DFF814C000DF10
:1058A0006D1E2D042D0CEDD100202070CFE70000DF
:1058B000B146030820000020985100201CB50028A4
:1058C00009D00549CB884A88CDE900238B880A880E
:1058D00002A1FBF70DF91CBD5000002025752E25F7
:1058E000752E25752E257500034800210180418005
:1058F000C1808180704700005000002038B5154DF0
:1059000095F8E800400701D4012038BD1620FBF7C8
:1059100035F8040012D02868206028792071694683
:10592000601D0AF031FC05000AD0681C01D00AF0A5
:10593000BBFC2046FBF75DF8284638BD002038BD8B
:10594000BDF800002146401D82B2172005F0A6FDDB
:1059500045B2EEE79851002002480079C0F380007C
:1059600070470000FC8C00207FB5044601AA694600
:1059700002A814F0BFFA9DF8081020684FF47A7559
:1059800061F38E209DF800101B4E61F389109DF885
:10599000041061F30500206000E07DB16D1EADB222
:1059A00001AA694602A814F0B5FA0120DFF84CC03C
:1059B00000DF9DF8040071788842EED09DF8080061
:1059C0009DF8001008439DF80410084303D10CA172
:1059D0000E4803F089FE9DF80800216860F3DF613E
:1059E0009DF8000060F35A519DF8040060F3D43133
:1059F000216070707FBD000030030020B1460308B5
:105A00000D0A54696D65207A65726F000038014097
:105A100010B54FF6FF710848DFF820C000DF0648D8
:105A2000DFF81CC00C300A21C088B0FBF1F0C4B212
:105A3000014800DF204610BDF08C0020F94B030820
:105A40004D4B030870B50C4605464FF6FF710748ED
:105A5000DFF81CC000DF0548DFF818C00C30816893
:105A60002960C0682060014800DF70BDF08C002014
:105A7000F94B03084D4B03082DE9F84F224C8A4699
:105A80000646984691464FF4807120460A9DFBF7E2
:105A9000F8FD41464846FBF7F4FD1C48016821F03B
:105AA00004010160304601F053FD04F1FF060027B8
:105AB0000DB3684601F032FD50B19DF8000004F8C6
:105AC000010BB4420BD34FF4806001F099FC12E05B
:105AD0006D1EADB23220DFF838C000DFE8E7277076
